:100000000C9435010C9466010C9466010C94660105
:100010000C9466010C9466010C9466010C946601C4
:100020000C9466010C9466010C9466010C946601B4
:100030000C9466010C9466010C9466010C946601A4
:100040000C9466010C9466010C9466010C94660194
:100050000C9466010C9466010C9466010C94910357
:100060000C9466010C9405040C94DB030C9466015B
:100070000C9466010C9466010C9466010C94660164
:100080000C9466010C9466010C9466010C94660154
:100090000C9466010C9466010C9466010C94660144
:1000A0000C9466010C9466010C9466010C94660134
:1000B0000C9466010C9466010C9466010C94660124
:1000C0000C9466010C9466010C9466010C94660114
:1000D0000C9466010C9466010C9466010C94660104
:1000E0000C9466010C94C1010C94AB010C9490012A
:1000F0000C9411030C946A020C945B020C94C601DC
:100100000C9486010C94A5010C948C020C94B30100
:100110000C947E020C943B040C942E020C949B01D4
:100120000C94C4020C94BD010C94C7010C94A10161
:100130000C94AF010C948C010C9494010C94CB01A1
:100140000C94B9010C9498010000200023002600B3
:1001500029002C002F0032000001000003010601DD
:10016000090100002100240027002A002D00300092
:10017000330001010000040107010A010000220010
:10018000250028002B002E00310034000201000061
:10019000050108010B010505050507050808080804
:1001A000020202020A0A080804040404010101010F
:1001B000010101010303030303030303040707070A
:1001C0000C0C0C0C0C0C0C0C0202020206060606AF
:1001D000060606060B0B0B0B0B0B0B0B010210207C
:1001E000200808102040102040800201020108046D
:1001F0000201010204081020408080402010080401
:100200000201800402018040201008040201080459
:10021000020101020408102040800102040810209D
:10022000408000000A0B02090C0D0E0807030401B0
:1002300000000000000000000000000000000000BE
:10024000000000000000000000000000000012118B
:10025000100000000000000000000000000000008E
:1002600000000000000000003B0411241FBECFEF7F
:10027000D1E2DEBFCDBF00E00CBF12E0A0E0B2E0F3
:10028000E8E5FCE000E00BBF02C007900D92A23150
:10029000B107D9F722E0A2E1B2E001C01D92A63D6C
:1002A000B207E1F711E0C5E3D1E000E006C0219715
:1002B0000109802FFE010E942206C433D10780E08D
:1002C0000807A9F70E9481040C942A060C940000E8
:1002D0008150823108F05AC0E82FF0E08827EC58AE
:1002E000FE4F8F4F0C9422069401980186018C01D9
:1002F0009001C6019B01A101A501AB01AF01B301B2
:10030000B901BD01C601C101C701CB0180918000C7
:100310008F77809380000895809180008F7DF9CF42
:1003200080918000877FF5CF84B58F7784BD089555
:1003300084B58F7DFBCF8091B0008F778093B00024
:1003400008958091B0008F7DF9CF809190008F77D4
:10035000809390000895809190008F7DF9CF8091D7
:100360009000877FF5CF8091A0008F778093A000C9
:1003700008958091A0008F7DF9CF8091A000877FA4
:10038000F5CF809120018F7780932001089580918F
:1003900020018F7DF9CF80912001877FF5CF1F93BA
:1003A000CF93DF93282F30E0F901EE5DFD4F84916C
:1003B000F901E452FE4FD491F901EA56FE4FC4917F
:1003C000CC23A9F0162F81110E946801EC2FF0E0D8
:1003D000EE0FFF1FE458FE4FA591B4918FB7F8942C
:1003E000EC91111108C0D095DE23DC938FBFDF9113
:1003F000CF911F910895DE2BF8CFCF93DF9390E03C
:10040000FC01E452FE4F24918A569E4FFC018491D8
:100410008823D1F090E0880F991FFC01EE59FE4F20
:10042000A591B491FC01E458FE4FC591D49162307E
:1004300071F49FB7F8943C91822F809583238C931D
:10044000E8812E2B28839FBFDF91CF9108958FB72E
:10045000F894EC912E2B2C938FBFF6CFAF92BF92D6
:10046000CF92DF92EF92FF920F931F93CF93DF9380
:100470006C017B018B01040F151FEB015E01AE18AF
:10048000BF08C017D10759F06991D601ED91FC91D1
:100490000190F081E02DC6011995892B79F7C501EE
:1004A000DF91CF911F910F91FF90EF90DF90CF9050
:1004B000BF90AF900895FC01538D448D252F30E0FF
:1004C000842F90E0821B930B541710F0CF96089561
:1004D00001970895FC01918D828D981761F0A28D8E
:1004E000AE0FBF2FB11D5D968C91928D9F5F9F7354
:1004F000928F90E008958FEF9FEF0895FC01918D0A
:10050000828D981731F0828DE80FF11D858D90E076
:1005100008958FEF9FEF0895FC01918D228D892F13
:1005200090E0805C9F4F821B91098F7399270895FB
:100530008BE292E00E948C0221E0892B09F420E0FA
:10054000822F0895FC01A48DA80FB92FB11DA35AC5
:10055000BF4F2C91848D90E001968F739927848FE3
:10056000A689B7892C93A089B1898C918370806406
:100570008C93938D848D981306C00288F389E02DA7
:1005800080818F7D80830895EF92FF920F931F9358
:10059000CF93DF93EC0181E0888F9B8D8C8D981336
:1005A0001AC0E889F989808185FF15C09FB7F89442
:1005B000EE89FF896083E889F9898081837080648E
:1005C00080839FBF81E090E0DF91CF911F910F91D9
:1005D000FF90EF900895F62E0B8D10E00F5F1F4FE8
:1005E0000F731127E02E8C8D8E110CC00FB607FCF7
:1005F000FACFE889F989808185FFF5CFCE010E9485
:10060000A202F1CFEB8DEC0FFD2FF11DE35AFF4F4E
:10061000F0829FB7F8940B8FEA89FB898081806212
:10062000CFCFCF93DF93EC01888D8823B9F0AA89CF
:10063000BB89E889F9898C9185FD03C0808186FD9D
:100640000DC00FB607FCF7CF8C9185FFF2CF8081EC
:1006500085FFEDCFCE010E94A202E9CFDF91CF91BD
:10066000089580E090E0892B29F00E949802811182
:100670000E94000080E090E0892B49F080E090E04B
:10068000892B29F00E94000081110E94000080E067
:1006900090E0892B49F080E090E0892B29F00E94BE
:1006A000000081110E94000080E090E0892B49F059
:1006B00080E090E0892B29F00E94000081110C94C9
:1006C000000008950F931F93FC0180911E029091EA
:1006D0001F02A0912002B09121024091120250917C
:1006E000130260911402709115028C019D01041B8C
:1006F000150B260B370BB901A8014D3351056105C8
:10070000710560F08093120290931302A09314027B
:10071000B0931502908181E0982790831F910F91EB
:1007200008951F920F920FB60F9211242F933F93AB
:100730008F939F93AF93BF9380912702909128024C
:10074000A0912902B0912A023091260223E0230FC2
:100750002D3758F50196A11DB11D209326028093D7
:10076000270290932802A0932902B0932A02809135
:10077000220290912302A0912402B09125020196B9
:10078000A11DB11D8093220290932302A093240205
:10079000B0932502BF91AF919F918F913F912F917F
:1007A0000F900FBE0F901F90189526E8230F02960A
:1007B000A11DB11DD2CF1F920F920FB60F9211241F
:1007C0000BB60F922F933F934F935F936F937F934B
:1007D0008F939F93AF93BF93EF93FF938BE292E03E
:1007E0000E94A202FF91EF91BF91AF919F918F91D3
:1007F0007F916F915F914F913F912F910F900BBE21
:100800000F900FBE0F901F9018951F920F920FB66A
:100810000F9211240BB60F922F938F939F93EF9308
:10082000FF93E0913B02F0913C028081E091410214
:10083000F091420282FD1DC09081809144028F5F41
:100840008F7320914502821741F0E0914402F0E05D
:10085000E55DFD4F958F80934402FF91EF919F914D
:100860008F912F910F900BBE0F900FBE0F901F9086
:1008700018958081F2CFEBE2F2E01382128288EECB
:1008800093E0A0E0B0E084839583A683B78384E0FF
:1008900092E09183808385EC90E09587848784EC57
:1008A00090E09787868780EC90E0918B808B81EC3D
:1008B00090E0938B828B82EC90E0958B848B86EC1E
:1008C00090E0978B868B118E128E138E148EE8EC2F
:1008D000F2E088E090E09183808384E090E093836D
:1008E00082831582148281E0868329E030E030879C
:1008F000278325E030E03287218714861386858799
:100900000895CF93DF9300D000D01F92CDB7DEB70C
:10091000789484B5826084BD84B5816084BD85B5DA
:10092000826085BD85B5816085BD80916E008160E6
:1009300080936E001092810080918100826080938C
:10094000810080918100816080938100809180008E
:100950008160809380008091B10084608093B100B9
:100960008091B00081608093B0008091910082609E
:10097000809391008091910081608093910080919B
:1009800090008160809390008091A10082608093AC
:10099000A1008091A10081608093A1008091A000BE
:1009A00081608093A0008091210182608093210169
:1009B00080912101816080932101809120018160DB
:1009C0008093200180917A00846080937A008091E6
:1009D0007A00826080937A0080917A0081608093AF
:1009E0007A0080917A00806880937A001092C1002A
:1009F000E0913B02F0913C0282E08083E09137027B
:100A0000F09138021082E0913902F0913A028FECB5
:100A1000808310924302E0913F02F091400286E011
:100A20008083E0913D02F0913E028081806180836D
:100A3000E0913D02F0913E02808188608083E091E8
:100A40003D02F0913E02808180688083E0913D020A
:100A5000F0913E0280818F7D80831091CA0262E016
:100A60008091C8020E94FD0161E0812F0E94FD017A
:100A70001091D10262E08091CF020E94FD0161E0FD
:100A8000812F0E94FD0161E08DE00E94FD0161E087
:100A90008CE00E94FD0196EDE92E92E0F92E88246B
:100AA000839422E0C22ED12CAA24A394B12C2FB778
:100AB000F8948091270290912802A0912902B09188
:100AC0002A022FBF80931E0290931F02A093200240
:100AD000B093210210921D0210921C0208EC12E049
:100AE00087E0F801DE01119601900D928A95E1F7F9
:100AF00029813A813327F901EE5DFD4F8491F90197
:100B0000E452FE4F9490F901EA56FE4F749077201C
:100B100009F45EC081110E946801E72DF0E0EE0F3C
:100B2000FF1FE85BFE4FA591B491EC919E2209F462
:100B30004FC08D819E8121E030E0892B09F04AC0B1
:100B400080911E0290911F02A0912002B09121027B
:100B50008093160290931702A0931802B093190283
:100B6000BE82AD822D813E8180911C0290911D023A
:100B7000281739070CF0C90190931D0280931C02BD
:100B8000095F1F4FE016F10609F0AACF81309105E9
:100B900009F450C008F449C0029709F450C06091AC
:100BA000CE028091CA020E94CF016091D50280914D
:100BB000D1020E94CF0160911B028DE00E94CF0103
:100BC00060911A028CE00E94CF010E9431036FCF26
:100BD00030E020E080911E0290911F02A09120023F
:100BE000B0912102409116025091170260911802B3
:100BF00070911902841B950BA60BB70B803496409D
:100C0000A105B10528F4CE0107960E946203AACF80
:100C1000232B39F0CE0107960E946203DE82CD823B
:100C2000A1CF8F821E821D829DCF80921B02809257
:100C30001A02B5CF10921B0210921A02B0CF809206
:100C40001B02FACFEE0FFF1F881F8BBF0790F69194
:080C5000E02D1994F894FFCF88
:100C580000000000C4022E025B0211038C026A022B
:020C68007E020A
:00000001FF
