:100000000C9424010C9438010C9438010C943801A0
:100010000C9438010C9438010C9438010C9438017C
:100020000C9438010C9438010C9438010C9438016C
:100030000C9438010C9438010C9438010C9438015C
:100040000C9438010C9438010C9438010C9438014C
:100050000C9438010C9438010C9438010C94CC01A8
:100060000C9438010C9438010C9438010C9438012C
:100070000C9438010C9438010C9438010C9438011C
:100080000C9438010C9438010C9438010C9438010C
:100090000C9438010C9438010C9438010C943801FC
:1000A0000C9438010C9438010C9438010C943801EC
:1000B0000C9438010C9438010C9438010C943801DC
:1000C0000C9438010C9438010C9438010C943801CC
:1000D0000C9438010C9438010C9438010C943801BC
:1000E0000C9438010C945E010C9485010C9462010F
:1000F0000C9498010C946D010C9481010C9458019E
:100100000C9473010C9499010C9477010C947D016B
:100110000C9493010C946A010C9466010C948B016D
:100120000C948F010C949D010000210024002700F5
:100130002A002D00300033000101000004010701F6
:100140000A01000020002300260029002C002F00B7
:100150003200000100000301060109010000220035
:10016000250028002B002E00310034000201000081
:10017000050108010B010505050507050808080824
:10018000020202020A0A080804040404010101012F
:10019000010101010303030303030303040707072A
:1001A0000C0C0C0C0C0C0C0C0202020206060606CF
:1001B000060606060B0B0B0B0B0B0B0B010210209C
:1001C000200808102040102040800201020108048D
:1001D0000201010204081020408080402010080421
:1001E000020180040201804020100804020108047A
:1001F00002010102040810204080010204081020BE
:10020000408000000A0B02090C0D0E0807030401D0
:1002100000000000000000000000000000000000DE
:1002200000000000000000000000000000001211AB
:1002300010000000000000000000000000000000AE
:10024000000000000000000011241FBECFEFD1E22B
:10025000DEBFCDBF00E00CBF22E0A0E0B2E001C0F5
:100260001D92A831B207E1F70E9416020C948A038E
:100270000C9400008150823108F05AC0E82FF0E061
:100280008827EA5BFE4F8F4F0C94820366016A0158
:1002900058015E01620198016D01730177017D01D2
:1002A000810185018B018F019801930199019D01C5
:1002B000809180008F7780938000089580918000E6
:1002C0008F7DF9CF80918000877FF5CF84B58F77C0
:1002D00084BD089584B58F7DFBCF8091B0008F776A
:1002E0008093B00008958091B0008F7DF9CF809108
:1002F00090008F77809390000895809190008F7D7B
:10030000F9CF80919000877FF5CF8091A0008F7703
:100310008093A00008958091A0008F7DF9CF8091F7
:10032000A000877FF5CF809120018F7780932001F7
:100330000895809120018F7DF9CF80912001877FE2
:10034000F5CF1F93CF93DF93E6E0F2E09491E0ECDA
:10035000F1E0D491EAE7F1E0C491CC23B9F0182F91
:10036000992319F0892F0E943A01EC2FF0E0EE0F4B
:10037000FF1FE45AFE4FA591B4918FB7F894EC910A
:10038000111108C0D095DE23DC938FBFDF91CF9190
:100390001F910895DE2BF8CF1F920F920FB60F9288
:1003A00011242F933F938F939F93AF93BF9380918B
:1003B000140290911502A0911602B091170230918B
:1003C000130223E0230F2D3758F50196A11DB11D0F
:1003D000209313028093140290931502A0931602A7
:1003E000B093170280910F0290911002A091110218
:1003F000B09112020196A11DB11D80930F0290933E
:100400001002A0931102B0931202BF91AF919F917D
:100410008F913F912F910F900FBE0F901F901895C5
:1004200026E8230F0296A11DB11DD2CF789484B582
:10043000826084BD84B5816084BD85B5826085BDE0
:1004400085B5816085BD80916E00816080936E006E
:100450001092810080918100826080938100809160
:100460008100816080938100809180008160809311
:1004700080008091B10084608093B1008091B000D1
:1004800081608093B00080919100826080939100A0
:1004900080919100816080939100809190008160B3
:1004A000809390008091A10082608093A100809150
:1004B000A10081608093A1008091A0008160809361
:1004C000A00080912101826080932101809121010F
:1004D00081608093210180912001816080932001BF
:1004E00080917A00846080937A0080917A008260A3
:1004F00080937A0080917A00816080937A00809165
:100500007A00806880937A001092C100C4ECD1E038
:10051000FE0124910EE711E0F80184918823C9F0CF
:1005200090E0880F991FFC01E85DFE4FA591B49102
:10053000FC01E45AFE4F459154919FB7F8943C91C9
:10054000822F809583238C93FA018081282B20832E
:100550009FBFE0ECF1E02491EAE7F1E08491882389
:1005600099F090E0880F991FFC01E85DFE4FA5917E
:10057000B491FC01E45AFE4F859194918FB7F894A1
:10058000EC91E22BEC938FBF9AE0892E92E0992EAA
:1005900020E0E22E20E0F22ECC24C394D12C42E0C5
:1005A000A42EB12C8FB7F8944090140250901502ED
:1005B00060901602709017028FBF40920B0250920B
:1005C0000C0260920D0270920E02F4018491FE0101
:1005D0003490F8012490222009F46CC081110E940B
:1005E0003A01E22DF0E0EE0FFF1FEE5BFE4FA5910A
:1005F000B4912C918091070290910802A091090278
:10060000B0910A02B301A201481B590B6A0B7B0B84
:10061000DB01CA01322209F44DC0893B9B40A10590
:10062000B105A8F1B0920602A092050280910502E0
:1006300090910602009709F45BC0039708F05BC035
:100640008091010290910202A0910302B0910402F4
:10065000B301A201481B590B6A0B7B0BDB01CA01DA
:100660008997A105B10508F446C040920102509255
:100670000202609203027092040270900002872DC1
:100680000E94A10181E078267092000234C080911E
:10069000050290910602892B49F6D0920602C0927B
:1006A000050240920702509208026092090270927D
:1006B0000A02BCCF8091070290910802A091090222
:1006C000B0910A02A3019201281B390B4A0B5B0B64
:1006D000DA01C901893B9B40A105B10508F4A6CF09
:1006E000109206021092050281E00E94A1019ECFA5
:1006F00081E00E94A101E114F10409F453CF0E94AA
:10070000000050CFEE0FFF1F881F8BBF0790F691A0
:08071000E02D1994F894FFCFCD
:00000001FF
