:100000000C9435010C9466010C9466010C94660105
:100010000C9466010C9466010C9466010C946601C4
:100020000C9466010C9466010C9466010C946601B4
:100030000C9466010C9466010C9466010C946601A4
:100040000C9466010C9466010C9466010C94660194
:100050000C9466010C9466010C9466010C94550393
:100060000C9466010C94C9030C949F030C946601D4
:100070000C9466010C9466010C9466010C94660164
:100080000C9466010C9466010C9466010C94660154
:100090000C9466010C9466010C9466010C94660144
:1000A0000C9466010C9466010C9466010C94660134
:1000B0000C9466010C9466010C9466010C94660124
:1000C0000C9466010C9466010C9466010C94660114
:1000D0000C9466010C9466010C9466010C94660104
:1000E0000C9466010C94B3010C94AB010C94CB01FD
:1000F0000C94BD010C949B010C9494010C94C701C9
:100100000C947D050C9458020C94AF010C9486015C
:100110000C94B9010C9427020C9490020C943602B2
:100120000C944A020C948C010C94C6010C94980116
:100130000C9490010C94C1010C94A1010C94DD026B
:100140000C94A5010C94FA01000021002400270062
:100150002A002D00300033000101000004010701D6
:100160000A01000020002300260029002C002F0097
:100170003200000100000301060109010000220015
:10018000250028002B002E00310034000201000061
:10019000050108010B010505050507050808080804
:1001A000020202020A0A080804040404010101010F
:1001B000010101010303030303030303040707070A
:1001C0000C0C0C0C0C0C0C0C0202020206060606AF
:1001D000060606060B0B0B0B0B0B0B0B010210207C
:1001E000200808102040102040800201020108046D
:1001F0000201010204081020408080402010080401
:100200000201800402018040201008040201080459
:10021000020101020408102040800102040810209D
:10022000408000000A0B02090C0D0E0807030401B0
:1002300000000000000000000000000000000000BE
:10024000000000000000000000000000000012118B
:10025000100000000000000000000000000000008E
:1002600000000000000000007D0511241FBECFEF3C
:10027000D1E2DEBFCDBF00E00CBF12E0A0E0B2E0F3
:10028000E8E6FBE000E00BBF02C007900D92AC3146
:10029000B107D9F722E0ACE1B2E001C01D92A03D68
:1002A000B207E1F711E0C5E3D1E000E006C0219715
:1002B0000109802FFE010E94AA05C433D10780E006
:1002C0000807A9F70E94FF030C94B2050C940000E4
:1002D0008150823108F05AC0E82FF0E08827EC58AE
:1002E000FE4F8F4F0C94AA059401980186018C0152
:1002F0009001C6019B01A101A501AB01AF01B301B2
:10030000B901BD01C601C101C701CB0180918000C7
:100310008F77809380000895809180008F7DF9CF42
:1003200080918000877FF5CF84B58F7784BD089555
:1003300084B58F7DFBCF8091B0008F778093B00024
:1003400008958091B0008F7DF9CF809190008F77D4
:10035000809390000895809190008F7DF9CF8091D7
:100360009000877FF5CF8091A0008F778093A000C9
:1003700008958091A0008F7DF9CF8091A000877FA4
:10038000F5CF809120018F7780932001089580918F
:1003900020018F7DF9CF80912001877FF5CF1F93BA
:1003A000CF93DF93E6E2F2E09491E0EEF1E0D491B6
:1003B000EAE9F1E0C491CC23B9F0182F992319F0A0
:1003C000892F0E946801EC2FF0E0EE0FFF1FE45828
:1003D000FE4FA591B4918FB7F894EC91111108C01C
:1003E000D095DE23DC938FBFDF91CF911F910895CD
:1003F000DE2BF8CFAF92BF92CF92DF92EF92FF92B7
:100400000F931F93CF93DF936C017B018B01040F3C
:10041000151FEB015E01AE18BF08C017D10759F0D8
:100420006991D601ED91FC910190F081E02DC6011A
:100430001995892B79F7C501DF91CF911F910F9104
:10044000FF90EF90DF90CF90BF90AF900895FC01A8
:10045000538D448D252F30E0842F90E0821B930B29
:10046000541710F0CF96089501970895FC01918DCF
:10047000828D981761F0A28DAE0FBF2FB11D5D96D2
:100480008C91928D9F5F9F73928F90E008958FEF74
:100490009FEF0895FC01918D828D981731F0828D28
:1004A000E80FF11D858D90E008958FEF9FEF08957F
:1004B000FC01918D228D892F90E0805C9F4F821BE3
:1004C00091098F739927089583E392E00E9458025F
:1004D00021E0892B09F420E0822F0895FC01A48DEE
:1004E000A80FB92FB11DA35ABF4F2C91848D90E056
:1004F00001968F739927848FA689B7892C93A08939
:10050000B1898C91837080648C93938D848D9813C2
:1005100006C00288F389E02D80818F7D8083089555
:10052000EF92FF920F931F93CF93DF93EC0181E043
:10053000888F9B8D8C8D98131AC0E889F9898081EA
:1005400085FF15C09FB7F894EE89FF896083E8891D
:10055000F98980818370806480839FBF81E090E00F
:10056000DF91CF911F910F91FF90EF900895F62E9C
:100570000B8D10E00F5F1F4F0F731127E02E8C8D36
:100580008E110CC00FB607FCFACFE889F98980817B
:1005900085FFF5CFCE010E946E02F1CFEB8DEC0FFF
:1005A000FD2FF11DE35AFF4FF0829FB7F8940B8F98
:1005B000EA89FB8980818062CFCFCF93DF93EC0102
:1005C000888D8823B9F0AA89BB89E889F9898C913B
:1005D00085FD03C0808186FD0DC00FB607FCF7CFF7
:1005E0008C9185FFF2CF808185FFEDCFCE010E94F7
:1005F0006E02E9CFDF91CF91089580E090E0892BE2
:1006000029F00E94640281110E94000080E090E0C5
:10061000892B49F080E090E0892B29F00E940000AE
:1006200081110E94000080E090E0892B49F080E079
:1006300090E0892B29F00E94000081110E940000A7
:1006400080E090E0892B49F080E090E0892B29F050
:100650000E94000081110C9400000895FC0101909B
:100660000020E9F73197AF01481B590BBC0183E328
:1006700092E00C94FA01CF93DF93CDB7DEB7A19748
:100680000FB6F894DEBF0FBECDBF19A2805D88A360
:10069000CE0180960E942E03A1960FB6F894DEBF7D
:1006A0000FBECDBFDF91CF9108951F920F920FB66D
:1006B0000F9211242F933F938F939F93AF93BF93E8
:1006C00080912F0290913002A0913102B0913202BC
:1006D00030912E0223E0230F2D3758F50196A11DEE
:1006E000B11D20932E0280932F0290933002A0938D
:1006F0003102B093320280912A0290912B02A09194
:100700002C02B0912D020196A11DB11D80932A02E9
:1007100090932B02A0932C02B0932D02BF91AF9126
:100720009F918F913F912F910F900FBE0F901F902F
:10073000189526E8230F0296A11DB11DD2CF1F9256
:100740000F920FB60F9211240BB60F922F933F9377
:100750004F935F936F937F938F939F93AF93BF93C9
:10076000EF93FF9383E392E00E946E02FF91EF917B
:10077000BF91AF919F918F917F916F915F914F91B9
:100780003F912F910F900BBE0F900FBE0F901F90B7
:1007900018951F920F920FB60F9211240BB60F925D
:1007A0002F938F939F93EF93FF93E0914302F091E8
:1007B00044028081E0914902F0914A0282FD1DC00D
:1007C000908180914C028F5F8F7320914D02821730
:1007D00041F0E0914C02F0E0ED5CFD4F958F80938D
:1007E0004C02FF91EF919F918F912F910F900BBE33
:1007F0000F900FBE0F901F9018958081F2CF7894C4
:1008000084B5826084BD84B5816084BD85B5826015
:1008100085BD85B5816085BD80916E0081608093C6
:100820006E0010928100809181008260809381002F
:10083000809181008160809381008091800081603F
:10084000809380008091B10084608093B10080919A
:10085000B00081608093B0008091910082608093AD
:10086000910080919100816080939100809190002F
:100870008160809390008091A10082608093A100AC
:100880008091A10081608093A1008091A00081608F
:100890008093A0008091210182608093210180914A
:1008A00021018160809321018091200181608093EA
:1008B000200180917A00846080937A0080917A0090
:1008C000826080937A0080917A00816080937A00C0
:1008D00080917A00806880937A001092C100C4EE03
:1008E000D1E0FE0124910EE911E0F8018491882302
:1008F000C9F090E0880F991FFC01E85BFE4FA591BD
:10090000B491FC01E458FE4F459154919FB7F8947F
:100910003C91822F809583238C93FA018081282B30
:1009200020839FBFE0EEF1E02491EAE9F1E08491B9
:10093000882399F090E0880F991FFC01E85BFE4F37
:10094000A591B491FC01E458FE4F859194918FB725
:10095000F894EC91E22BEC938FBFE0914302F0917D
:10096000440282E08083E0913F02F09140021082D5
:10097000E0914102F09142028FEC808310924B0291
:10098000E0914702F091480286E08083E0914502C1
:10099000F0914602808180618083E0914502F09170
:1009A0004602808188608083E0914502F091460292
:1009B000808180688083E0914502F09146028081C9
:1009C0008F7D80839AE2E92E92E0F92ECC24C394A5
:1009D0008FB7F89480902F0290903002A09031024F
:1009E000B09032028FBF8092260290922702A0928E
:1009F0002802B0922902F7018491FE01D490F801F7
:100A00007490711058C0109225028091210290912B
:100A10002202A0912302B0912402A5019401281B77
:100A2000390B4A0B5B0BDA01C901893B9B40A105DD
:100A3000B10508F05EC080911D0290911E02A09148
:100A40001F02B0912002A5019401281B390B4A0B0B
:100A50005B0BDA01C901C397A105B10580F0809253
:100A60001D0290921E02A0921F02B0922002D0900E
:100A70001C028D2D0E94CF01DC24D0921C0282E149
:100A800092E00E942E038091250290E00E943B0399
:100A900085E192E00E942E0390E080E00E943B03FB
:100AA00085E192E00E942E0389E192E00E942E03EC
:100AB0000E94FD028DCF81110E946801E72DF0E0B8
:100AC000EE0FFF1FEE59FE4FA591B4918C91D822E5
:100AD00081E009F480E080932502DD2009F495CFC0
:100AE0008092210290922202A0922302B0922402CC
:100AF0008CCF81E00E94CF01C2CFE3E3F2E013820A
:100B0000128288EE93E0A0E0B0E084839583A68310
:100B1000B78384E092E09183808385EC90E09587B1
:100B2000848784EC90E09787868780EC90E0918BB7
:100B3000808B81EC90E0938B828B82EC90E0958BA4
:100B4000848B86EC90E0978B868B118E128E138EA1
:100B5000148E0895EE0FFF1F881F8BBF0790F6912C
:080B6000E02D1994F894FFCF79
:100B6800000000009002FA012702DD025802360256
:0C0B78004A023E2000207C20000D0A00F4
:00000001FF
