:100000000C9424010C9438010C9438010C943801A0
:100010000C9438010C9438010C9438010C9438017C
:100020000C9438010C9438010C9438010C9438016C
:100030000C9438010C9438010C9438010C9438015C
:100040000C9438010C9438010C9438010C9438014C
:100050000C9438010C9438010C9438010C945B0218
:100060000C9438010C9438010C9438010C9438012C
:100070000C9438010C9438010C9438010C9438011C
:100080000C9438010C9438010C9438010C9438010C
:100090000C9438010C9438010C9438010C943801FC
:1000A0000C9438010C9438010C9438010C943801EC
:1000B0000C9438010C9438010C9438010C943801DC
:1000C0000C9438010C9438010C9438010C943801CC
:1000D0000C9438010C9438010C9438010C943801BC
:1000E0000C9438010C948B010C948F010C949301A7
:1000F0000C9466010C9477010C949D010C9473018F
:100100000C9498010C9458010C9462010C94850194
:100110000C946A010C946D010C947D010C945E01A9
:100120000C9481010C94990100002000230026000A
:1001300029002C002F0032000001000003010601FD
:10014000090100002100240027002A002D003000B2
:10015000330001010000040107010A010000220030
:10016000250028002B002E00310034000201000081
:10017000050108010B010505050507050808080824
:10018000020202020A0A080804040404010101012F
:10019000010101010303030303030303040707072A
:1001A0000C0C0C0C0C0C0C0C0202020206060606CF
:1001B000060606060B0B0B0B0B0B0B0B010210209C
:1001C000200808102040102040800201020108048D
:1001D0000201010204081020408080402010080421
:1001E000020180040201804020100804020108047A
:1001F00002010102040810204080010204081020BE
:10020000408000000A0B02090C0D0E0807030401D0
:1002100000000000000000000000000000000000DE
:1002200000000000000000000000000000001211AB
:1002300010000000000000000000000000000000AE
:10024000000000000000000011241FBECFEFD1E22B
:10025000DEBFCDBF00E00CBF22E0A0E0B2E001C0F5
:100260001D92A831B207E1F70E94A5020C94F50394
:100270000C9400008150823108F05AC0E82FF0E061
:100280008827EA5BFE4F8F4F0C94ED0366016A01ED
:1002900058015E01620198016D01730177017D01D2
:1002A000810185018B018F019801930199019D01C5
:1002B000809180008F7780938000089580918000E6
:1002C0008F7DF9CF80918000877FF5CF84B58F77C0
:1002D00084BD089584B58F7DFBCF8091B0008F776A
:1002E0008093B00008958091B0008F7DF9CF809108
:1002F00090008F77809390000895809190008F7D7B
:10030000F9CF80919000877FF5CF8091A0008F7703
:100310008093A00008958091A0008F7DF9CF8091F7
:10032000A000877FF5CF809120018F7780932001F7
:100330000895809120018F7DF9CF80912001877FE2
:10034000F5CF1F93CF93DF93282F30E0F901EE5FB5
:10035000FD4F8491F901E454FE4FD491F901EA581C
:10036000FE4FC491CC23A9F0162F81110E943A01AF
:10037000EC2FF0E0EE0FFF1FE45AFE4FA591B49171
:100380008FB7F894EC91111108C0D095DE23DC935F
:100390008FBFDF91CF911F910895DE2BF8CFCF93C0
:1003A000DF9390E0FC01E454FE4F24918A589E4F65
:1003B000FC0184918823D1F090E0880F991FFC0103
:1003C000EE5BFE4FA591B491FC01E45AFE4FC5913E
:1003D000D491623071F49FB7F8943C91822F80954C
:1003E00083238C93E8812E2B28839FBFDF91CF91AD
:1003F00008958FB7F894EC912E2B2C938FBFF6CFE6
:100400003FB7F8948091140290911502A0911602C2
:10041000B091170226B5A89B05C02F3F19F0019691
:10042000A11DB11D3FBFBA2FA92F982F8827BC014E
:10043000CD01620F711D811D911D42E0660F771F76
:10044000881F991F4A95D1F708950F931F93CF9353
:1004500080910B0290910C02A0910D02B0910E02BE
:1004600040910102509102026091030270910402D6
:100470008C019D01041B150B260B370BB901A8013C
:100480004D3351056105710590F080930102909301
:100490000202A0930302B0930402C09100026C2FE9
:1004A00082E40E94A10181E0C827C0930002CF919D
:1004B0001F910F9108951F920F920FB60F92112462
:1004C0002F933F938F939F93AF93BF93809110028D
:1004D00090911102A0911202B091130230910F027B
:1004E00023E0230F2D3758F50196A11DB11D209350
:1004F0000F028093100290931102A0931202B09306
:1005000013028091140290911502A0911602B091ED
:1005100017020196A11DB11D80931402909315023C
:10052000A0931602B0931702BF91AF919F918F9144
:100530003F912F910F900FBE0F901F90189526E8B6
:10054000230F0296A11DB11DD2CF789484B582608D
:1005500084BD84B5816084BD85B5826085BD85B567
:10056000816085BD80916E00816080936E001092E5
:100570008100809181008260809381008091810060
:1005800081608093810080918000816080938000F1
:100590008091B10084608093B1008091B00081604F
:1005A0008093B0008091910082608093910080914F
:1005B0009100816080939100809190008160809390
:1005C00090008091A10082608093A1008091A100A1
:1005D00081608093A1008091A00081608093A00041
:1005E00080912101826080932101809121018160AD
:1005F000809321018091200181608093200180916E
:100600007A00846080937A0080917A00826080937F
:100610007A0080917A00816080937A0080917A00DC
:10062000806880937A001092C10062E082E10E94AB
:10063000CF0161E082E40E94CF0161E08DE00E9481
:10064000CF0161E08CE00E94CF012EEC222E21E050
:10065000322E38E8832E31E0932EC0E0D0E001E066
:1006600010E042E0A42EB12C8FB7F894C090100295
:10067000D0901102E0901202F09013028FBFC0924E
:100680000B02D0920C02E0920D02F0920E02E4E115
:10069000F2E08491F1014490F401549051103EC075
:1006A00090E080E02091090230910A0212161306B0
:1006B000D4F44091050250910602609107027091B6
:1006C0000802C41AD50AE60AF70AF1E4CF16F6E0E2
:1006D000DF06E104F10438F0892B09F443C0B0923D
:1006E0000A02A09209028091090290910A028130C7
:1006F000910509F468C008F45DC0029709F468C068
:10070000672D8DE00E94A101662D8CE00E94A10161
:10071000209709F4A9CF0E940000A6CF81110E9462
:100720003A01E52DF0E0EE0FFF1FE85DFE4FA591C9
:10073000B4912C918091090290910A02422209F40D
:10074000AFCF892B61F4C0920502D0920602E092ED
:100750000702F092080210930A020093090281E056
:1007600090E0A0CF10920A02109209020E940002AB
:100770006B017C018AE0482E512C612C712C0E9467
:1007800000026C197D098E099F09683E734081053E
:100790009105A8F321E0421A51086108710888EE1A
:1007A000C80E83E0D81EE11CF11C41145104610401
:1007B000710429F761E082E40E94A1016624639438
:1007C000772473949DCF0E942502612C712C98CFC1
:1007D0000E942502612CF4CF0895EE0FFF1F881FA1
:0E07E0008BBF0790F691E02D1994F894FFCF8F
:00000001FF
