:100000000C9435010C9466010C9466010C94660105
:100010000C9466010C9466010C9466010C946601C4
:100020000C9466010C9466010C9466010C946601B4
:100030000C9466010C9466010C9466010C946601A4
:100040000C9466010C9466010C9466010C94660194
:100050000C9466010C9466010C9466010C942904BE
:100060000C9466010C949D040C9473040C9466012A
:100070000C9466010C9466010C9466010C94660164
:100080000C9466010C9466010C9466010C94660154
:100090000C9466010C9466010C9466010C94660144
:1000A0000C9466010C9466010C9466010C94660134
:1000B0000C9466010C9466010C9466010C94660124
:1000C0000C9466010C9466010C9466010C94660114
:1000D0000C9466010C9466010C9466010C94660104
:1000E0000C9466010C9494010C9486010C943603D4
:1000F0000C9453020C94D3040C94B9010C94B301E6
:100100000C94A1010C94BD010C94CB010C94A3029E
:100110000C94C7010C94C6010C94C1010C948C0181
:100120000C94A5010C94AF010C9498010C948002DE
:100130000C948F020C94B1020C94AB010C94E90264
:100140000C9490010C949B010000200023002600D9
:1001500029002C002F0032000001000003010601DD
:10016000090100002100240027002A002D00300092
:10017000330001010000040107010A010000220010
:10018000250028002B002E00310034000201000061
:10019000050108010B010505050507050808080804
:1001A000020202020A0A080804040404010101010F
:1001B000010101010303030303030303040707070A
:1001C0000C0C0C0C0C0C0C0C0202020206060606AF
:1001D000060606060B0B0B0B0B0B0B0B010210207C
:1001E000200808102040102040800201020108046D
:1001F0000201010204081020408080402010080401
:100200000201800402018040201008040201080459
:10021000020101020408102040800102040810209D
:10022000408000000A0B02090C0D0E0807030401B0
:1002300000000000000000000000000000000000BE
:10024000000000000000000000000000000012118B
:10025000100000000000000000000000000000008E
:100260000000000000000000D30411241FBECFEFE7
:10027000D1E2DEBFCDBF00E00CBF12E0A0E0B2E0F3
:10028000E2EAFDE000E00BBF02C007900D92A83249
:10029000B107D9F722E0A8E2B2E001C01D92AC3D5F
:1002A000B207E1F711E0C5E3D1E000E006C0219715
:1002B0000109802FFE010E94C706C433D10780E0E8
:1002C0000807A9F70E9400050C94CF060C940000C3
:1002D0008150823108F05AC0E82FF0E08827EC58AE
:1002E000FE4F8F4F0C94C7069401980186018C0134
:1002F0009001C6019B01A101A501AB01AF01B301B2
:10030000B901BD01C601C101C701CB0180918000C7
:100310008F77809380000895809180008F7DF9CF42
:1003200080918000877FF5CF84B58F7784BD089555
:1003300084B58F7DFBCF8091B0008F778093B00024
:1003400008958091B0008F7DF9CF809190008F77D4
:10035000809390000895809190008F7DF9CF8091D7
:100360009000877FF5CF8091A0008F778093A000C9
:1003700008958091A0008F7DF9CF8091A000877FA4
:10038000F5CF809120018F7780932001089580918F
:1003900020018F7DF9CF80912001877FF5CF1F93BA
:1003A000CF93DF93282F30E0F901EE5DFD4F84916C
:1003B000F901E452FE4FD491F901EA56FE4FC4917F
:1003C000CC23A9F0162F81110E946801EC2FF0E0D8
:1003D000EE0FFF1FE458FE4FA591B4918FB7F8942C
:1003E000EC91111108C0D095DE23DC938FBFDF9113
:1003F000CF911F910895DE2BF8CFCF93DF9390E03C
:10040000FC01E452FE4F24918A569E4FFC018491D8
:100410008823D1F090E0880F991FFC01EE59FE4F20
:10042000A591B491FC01E458FE4FC591D49162307E
:1004300071F49FB7F8943C91822F809583238C931D
:10044000E8812E2B28839FBFDF91CF9108958FB72E
:10045000F894EC912E2B2C938FBFF6CF3FB7F894E6
:1004600080913B0290913C02A0913D02B0913E02EE
:1004700026B5A89B05C02F3F19F00196A11DB11DFF
:100480003FBFBA2FA92F982F8827BC01CD01620F3B
:10049000711D811D911D42E0660F771F881F991FF6
:1004A0004A95D1F70895AF92BF92CF92DF92EF9223
:1004B000FF920F931F93CF93DF936C017B018B010E
:1004C000040F151FEB015E01AE18BF08C017D1075E
:1004D00059F06991D601ED91FC910190F081E02DE8
:1004E000C6011995892B79F7C501DF91CF911F912D
:1004F0000F91FF90EF90DF90CF90BF90AF90089555
:10050000FC01538D448D252F30E0842F90E0821B19
:10051000930B541710F0CF96089501970895FC019E
:10052000918D828D981761F0A28DAE0FBF2FB11DF6
:100530005D968C91928D9F5F9F73928F90E008954E
:100540008FEF9FEF0895FC01918D828D981731F008
:10055000828DE80FF11D858D90E008958FEF9FEF5C
:100560000895FC01918D228D892F90E0805C9F4F32
:10057000821B91098F73992708958FE392E00E945F
:10058000B10221E0892B09F420E0822F0895FC01BB
:10059000A48DA80FB92FB11DA35ABF4F2C91848DE4
:1005A00090E001968F739927848FA689B7892C9341
:1005B000A089B1898C91837080648C93938D848D94
:1005C000981306C00288F389E02D80818F7D808397
:1005D0000895EF92FF920F931F93CF93DF93EC0157
:1005E00081E0888F9B8D8C8D98131AC0E889F989DA
:1005F000808185FF15C09FB7F894EE89FF896083DD
:10060000E889F98980818370806480839FBF81E05D
:1006100090E0DF91CF911F910F91FF90EF9008959F
:10062000F62E0B8D10E00F5F1F4F0F731127E02E7A
:100630008C8D8E110CC00FB607FCFACFE889F989B2
:10064000808185FFF5CFCE010E94C702F1CFEB8DEF
:10065000EC0FFD2FF11DE35AFF4FF0829FB7F89486
:100660000B8FEA89FB8980818062CFCFCF93DF93A4
:10067000EC01888D8823B9F0AA89BB89E889F989BA
:100680008C9185FD03C0808186FD0DC00FB607FCEF
:10069000F7CF8C9185FFF2CF808185FFEDCFCE0122
:1006A0000E94C702E9CFDF91CF91089580E090E0EA
:1006B000892B29F00E94BD0281110E94000080E078
:1006C00090E0892B49F080E090E0892B29F00E948E
:1006D000000081110E94000080E090E0892B49F029
:1006E00080E090E0892B29F00E94000081110E9497
:1006F000000080E090E0892B49F080E090E0892BB9
:1007000029F00E94000081110C94000008950F93BD
:100710001F938091320290913302A0913402B091E4
:100720003502409128025091290260912A0270916D
:100730002B028C019D01041B150B260B370BB901F5
:10074000A8014D3351056105710570F080932802B1
:1007500090932902A0932A02B0932B028091000269
:1007600091E08927809300021F910F910895FC0169
:1007700001900020E9F73197AF01481B590BBC01EC
:100780008FE392E00C9453028F929F92AF92BF92AC
:100790000F931F93CF93DF93CDB7DEB7A1970FB61B
:1007A000F894DEBF0FBECDBF19A2423008F44AE074
:1007B0008E010F5D1F4F842E912CB12CA12CA50111
:1007C00094010E94A506E62FB901CA01EA30F4F4AB
:1007D000E05DD801EE938D01232B242B252B79F797
:1007E00090E080E0109719F0CD010E94B703A19628
:1007F0000FB6F894DEBF0FBECDBFDF91CF911F9132
:100800000F91BF90AF909F908F900895E95CE1CFDA
:10081000CF92DF92EF92FF92CF93DF936B017C0137
:100820006DE28FE392E00E94E902EC0166277727F0
:10083000CB016C197D098E099F094AE00E94C4030F
:100840008C0F9D1FDF91CF91FF90EF90DF90CF90A5
:1008500008951F920F920FB60F9211242F933F937A
:100860008F939F93AF93BF938091370290913802FB
:10087000A0913902B0913A023091360223E0230F61
:100880002D3758F50196A11DB11D20933602809396
:10089000370290933802A0933902B0933A028091C4
:1008A0003B0290913C02A0913D02B0913E02019624
:1008B000A11DB11D80933B0290933C02A0933D0289
:1008C000B0933E02BF91AF919F918F913F912F9135
:1008D0000F900FBE0F901F90189526E8230F0296D9
:1008E000A11DB11DD2CF1F920F920FB60F921124EE
:1008F0000BB60F922F933F934F935F936F937F931A
:100900008F939F93AF93BF93EF93FF938FE392E007
:100910000E94C702FF91EF91BF91AF919F918F917C
:100920007F916F915F914F913F912F910F900BBEEF
:100930000F900FBE0F901F9018951F920F920FB639
:100940000F9211240BB60F922F938F939F93EF93D7
:10095000FF93E0914F02F09150028081E0915502A7
:10096000F091560282FD1DC09081809158028F5FE8
:100970008F7320915902821741F0E0915802F0E004
:10098000E15CFD4F958F80935802FF91EF919F910D
:100990008F912F910F900BBE0F900FBE0F901F9055
:1009A00018958081F2CFEFE3F2E01382128288EE95
:1009B00093E0A0E0B0E084839583A683B7838FE0C3
:1009C00092E09183808385EC90E09587848784EC26
:1009D00090E09787868780EC90E0918B808B81EC0C
:1009E00090E0938B828B82EC90E0958B848B86ECED
:1009F00090E0978B868B118E128E138E148E089535
:100A0000789484B5826084BD84B5816084BD85B5E9
:100A1000826085BD85B5816085BD80916E008160F5
:100A200080936E001092810080918100826080939B
:100A3000810080918100816080938100809180009D
:100A40008160809380008091B10084608093B100C8
:100A50008091B00081608093B000809191008260AD
:100A600080939100809191008160809391008091AA
:100A700090008160809390008091A10082608093BB
:100A8000A1008091A10081608093A1008091A000CD
:100A900081608093A0008091210182608093210178
:100AA00080912101816080932101809120018160EA
:100AB0008093200180917A00846080937A008091F5
:100AC0007A00826080937A0080917A0081608093BE
:100AD0007A0080917A00806880937A001092C10039
:100AE00062E085E10E94FD0161E085E40E94FD0174
:100AF00061E08DE00E94FD0161E08CE00E94FD015B
:100B0000E0914F02F091500282E08083E0914B022D
:100B1000F0914C021082E0914D02F0914E028FEC68
:100B2000808310925702E0915302F091540286E0C4
:100B30008083E0915102F091520280818061808334
:100B4000E0915102F0915202808188608083E091AF
:100B50005102F0915202808180688083E0915102BD
:100B6000F091520280818F7D80832BEA222E21E03A
:100B7000322E5524539401E012E0812C912C540123
:100B8000F801C191D1918F014AE0C501B4010E94E1
:100B9000C4038DE192E00E94B703BE01DD0F880B14
:100BA000990B97FF67C00E94080481E292E00E94BF
:100BB000B703FFEF8F1A9F0AAF0ABF0A25E082161C
:100BC0009104A104B104E1F685E292E00E94B7032A
:100BD0008FB7F8948090370290903802A090390235
:100BE000B0903A028FBF8092320290923302A0926C
:100BF0003402B0923502E7E3F2E08491E1EFF1E0F4
:100C0000D491F101C491C11139C090E080E04091CC
:100C10002C0250912D0260912E0270912F02841AA5
:100C2000950AA60AB70AE0E48E16E6E09E06A1043D
:100C3000B10408F04AC00E9487038091300290916D
:100C400031028130910509F474C008F475C002972F
:100C500009F479C06091000285E40E94CF01662DFD
:100C60008DE00E94CF01672D8CE00E94CF010E9491
:100C7000560381CF4AE00E94C40397CF81110E949E
:100C80006801EC2FF0E0EE0FFF1FE85BFE4FA5912F
:100C9000B4918C91D82309F4B8CF8091300290910F
:100CA0003102892B79F480922C0290922D02A0922D
:100CB0002E02B0922F0281E090E090933102809357
:100CC0003002A5CF81E090E0A2CF892B39F082E0FD
:100CD00090E09093310280933002ADCF10923102B8
:100CE00010923002509200020E942E024B015C01D1
:100CF0008AE0C82ED12CE12CF12C0E942E0268191A
:100D000079098A099B09683E734081059105A8F31A
:100D100091E0C91AD108E108F108E8EE8E0EE3E08F
:100D20009E1EA11CB11CC114D104E104F10429F7D9
:100D300084CF712C612C8ECF509200027724739453
:100D40006624639487CF712CFBCFA1E21A2EAA1BD5
:100D5000BB1BFD010DC0AA1FBB1FEE1FFF1FA2176B
:100D6000B307E407F50720F0A21BB30BE40BF50B68
:100D7000661F771F881F991F1A9469F760957095F1
:100D8000809590959B01AC01BD01CF010895EE0FB8
:100D9000FF1F881F8BBF0790F691E02D1994F894E0
:020DA000FFCF83
:100DA200010A000B000C000D000E0000000000E91B
:100DB20002530280023603B1028F02A302203E20B8
:080DC20000207C20000D0A0056
:00000001FF
