:100000000C9424010C9445010C9445010C94450179
:100010000C9445010C9445010C9445010C94450148
:100020000C9445010C9445010C9445010C94450138
:100030000C9445010C9445010C9445010C94450128
:100040000C9445010C9445010C9445010C94450118
:100050000C9445010C9445010C9445010C946202EA
:100060000C9445010C9445010C9445010C944501F8
:100070000C9445010C9445010C9445010C944501E8
:100080000C9445010C9445010C9445010C944501D8
:100090000C9445010C9445010C9445010C944501C8
:1000A0000C9445010C9445010C9445010C944501B8
:1000B0000C9445010C9445010C9445010C944501A8
:1000C0000C9445010C9445010C9445010C94450198
:1000D0000C9445010C9445010C9445010C94450188
:1000E0000C9445010C9473010C9480010C949C01B8
:1000F0000C94A6010C948E010C94A5010C947A0129
:100100000C9498010C9465010C9492010C946B0171
:100110000C948A010C94A0010C94AA010C94770110
:100120000C9484010C946F01000020002300260031
:1001300029002C002F0032000001000003010601FD
:10014000090100002100240027002A002D003000B2
:10015000330001010000040107010A010000220030
:10016000250028002B002E00310034000201000081
:10017000050108010B010505050507050808080824
:10018000020202020A0A080804040404010101012F
:10019000010101010303030303030303040707072A
:1001A0000C0C0C0C0C0C0C0C0202020206060606CF
:1001B000060606060B0B0B0B0B0B0B0B010210209C
:1001C000200808102040102040800201020108048D
:1001D0000201010204081020408080402010080421
:1001E000020180040201804020100804020108047A
:1001F00002010102040810204080010204081020BE
:10020000408000000A0B02090C0D0E0807030401D0
:1002100000000000000000000000000000000000DE
:1002200000000000000000000000000000001211AB
:1002300010000000000000000000000000000000AE
:10024000000000000000000011241FBECFEFD1E22B
:10025000DEBFCDBF00E00CBF12E0A0E0B2E0E0EFF7
:10026000F7E000E00BBF02C007900D92A230B1078B
:10027000D9F722E0A2E0B2E001C01D92A931B20795
:10028000E1F70E94AC020C94F6030C94000081503C
:10029000823108F05AC0E82FF0E08827ED5AFE4F6F
:1002A0008F4F0C94EE037301770165016B016F01B1
:1002B000A5017A01800184018A018E0192019801D1
:1002C0009C01A501A001A601AA01809180008F7761
:1002D000809380000895809180008F7DF9CF809178
:1002E0008000877FF5CF84B58F7784BD089584B56E
:1002F0008F7DFBCF8091B0008F778093B000089501
:100300008091B0008F7DF9CF809190008F7780939E
:1003100090000895809190008F7DF9CF809190009A
:10032000877FF5CF8091A0008F778093A0000895FC
:100330008091A0008F7DF9CF8091A000877FF5CFBD
:10034000809120018F778093200108958091200172
:100350008F7DF9CF80912001877FF5CF1F93CF93B9
:10036000DF93282F30E0F901EE5FFD4F8491F90112
:10037000E454FE4FD491F901EA58FE4FC491CC23C6
:10038000A9F0162F81110E944701EC2FF0E0EE0F2B
:10039000FF1FE45AFE4FA591B4918FB7F894EC91EA
:1003A000111108C0D095DE23DC938FBFDF91CF9170
:1003B0001F910895DE2BF8CFCF93DF9390E0FC01DF
:1003C000E454FE4F24918A589E4FFC018491882367
:1003D000D1F090E0880F991FFC01EE5BFE4FA591D4
:1003E000B491FC01E45AFE4FC591D491623071F48E
:1003F0009FB7F8943C91822F809583238C93E8815A
:100400002E2B28839FBFDF91CF9108958FB7F8944B
:10041000EC912E2B2C938FBFF6CF3FB7F8948091A1
:10042000150290911602A0911702B091180226B5FC
:10043000A89B05C02F3F19F00196A11DB11D3FBF1C
:10044000BA2FA92F982F8827BC01CD01620F711DEB
:10045000811D911D42E0660F771F881F991F4A95E5
:10046000D1F708950F931F9380910C0290910D0284
:10047000A0910E02B0910F0240910202509103022E
:1004800060910402709105028C019D01041B150B03
:10049000260B370BB901A8014D33510561057105D4
:1004A00070F08093020290930302A0930402B09331
:1004B00005028091000291E08927809300021F913C
:1004C0000F9108951F920F920FB60F9211242F9340
:1004D0003F938F939F93AF93BF938091110290911D
:1004E0001202A0911302B09114023091100223E085
:1004F000230F2D3758F50196A11DB11D2093100231
:100500008093110290931202A0931302B0931402ED
:100510008091150290911602A0911702B0911802D5
:100520000196A11DB11D8093150290931602A09310
:100530001702B0931802BF91AF919F918F913F9195
:100540002F910F900FBE0F901F90189526E8230F44
:100550000296A11DB11DD2CF789484B5826084BD6E
:1005600084B5816084BD85B5826085BD85B58160B7
:1005700085BD80916E00816080936E001092810035
:1005800080918100826080938100809181008160F0
:1005900080938100809180008160809380008091B1
:1005A000B10084608093B1008091B000816080933D
:1005B000B0008091910082608093910080919100C1
:1005C0008160809391008091900081608093900081
:1005D0008091A10082608093A1008091A100816040
:1005E0008093A1008091A00081608093A000809101
:1005F000210182608093210180912101816080939B
:1006000021018091200181608093200180917A00F6
:10061000846080937A0080917A00826080937A006F
:1006200080917A00816080937A0080917A0080685E
:1006300080937A001092C10062E085E10E94DC01A3
:1006400061E085E40E94DC0161E08DE00E94DC0154
:1006500061E08CE00E94DC0100E010E0EE24E39415
:10066000F12C3324339432E0C32ED12C8FB7F8947D
:100670008090110290901202A0901302B090140288
:100680008FBF80920C0290920D02A0920E02B09247
:100690000F02E7E1F2E08491E1EDF1E06490EBE834
:1006A000F1E07490711039C090E080E04091060252
:1006B000509107026091080270910902841A950A0C
:1006C000A60AB70AF0E48F16F6E09F06A104B1046B
:1006D00008F047C00E94320280910A0290910B02FA
:1006E0008130910509F46FC008F470C0029709F4D5
:1006F00072C06091000285E40E94AE016C2F8DE013
:100700000E94AE016D2F8CE00E94AE010115110513
:1007100009F4ACCF0E940000A9CF81110E944701CB
:10072000E72DF0E0EE0FFF1FE85DFE4FA591B491BD
:100730008C91682209F4B8CF80910A0290910B0243
:10074000892B61F48092060290920702A09208021F
:10075000B0920902F0920B02E0920A0281E090E06E
:10076000A5CF892B29F0D0920B02C0920A02B2CFFA
:1007700010920B0210920A02309200020E940D02A7
:100780002B013C018AE0882E912CA12CB12C0E94D7
:100790000D026419750986099709683E7340810541
:1007A0009105A8F321E0821A9108A108B10888EE0A
:1007B000480E83E0581E611C711C81149104A10431
:1007C000B10429F789CFD0E0C0E093CF3092000286
:1007D000D1E0C1E08ECFD0E0FCCF0895EE0FFF1F37
:1007E000881F8BBF0790F691E02D1994F894FFCFE6
:0207F000010006
:00000001FF
