:100000000C9427010C944B010C944B010C944B0164
:100010000C944B010C944B010C944B010C944B0130
:100020000C944B010C944B010C944B010C944B0120
:100030000C944B010C944B010C944B010C944B0110
:100040000C944B010C944B010C944B010C944B0100
:100050000C944B010C944B010C944B010C948D02AD
:100060000C944B010C944B010C944B010C944B01E0
:100070000C944B010C944B010C944B010C944B01D0
:100080000C944B010C944B010C944B010C944B01C0
:100090000C944B010C944B010C944B010C944B01B0
:1000A0000C944B010C944B010C944B010C944B01A0
:1000B0000C944B010C944B010C944B010C944B0190
:1000C0000C944B010C944B010C944B010C944B0180
:1000D0000C944B010C944B010C944B010C944B0170
:1000E0000C944B010C94AB010C9494010C946B0197
:1000F0000C948A010C94B0010C9475010C9480014D
:100100000C94AC010C94A2010C9490010C949801F5
:100110000C9471010C9486010C94A6010C94970622
:100120000C9479010C949E010C947D010000210037
:10013000240027002A002D003000330001010000B8
:10014000040107010A0100002200250028002B00FD
:100150002E003100340002010000050108010B01EE
:10016000000020002300260029002C002F00320070
:100170000001000003010601090105050505070549
:1001800008080808020202020A0A08080404040413
:10019000010101010101010103030303030303033F
:1001A000040707070C0C0C0C0C0C0C0C02020202CE
:1001B00006060606060606060B0B0B0B0B0B0B0BB7
:1001C0000102102020080810204010204080020169
:1001D000020108040201010204081020408080404E
:1001E000201008040201800402018040201008044D
:1001F00002010804020101020408102040800102EB
:1002000004081020408000000A0B02090C0D0E08A3
:1002100007030401000000000000000000000000CF
:1002200000000000000000000000000000000000CE
:10023000000012111000000000000000000000008B
:1002400000000000000000000000000097061124DC
:100250001FBECFEFD1E2DEBFCDBF00E00CBF22E07A
:10026000A0E0B2E001C01D92A93BB207E1F711E0A6
:10027000C7E2D1E000E006C021970109802FFE010E
:100280000E945407C632D10780E00807A9F70E94F0
:10029000D7020C945C070C9400008150823108F066
:1002A0005AC0E82FF0E08827E75AFE4F8F4F0C9492
:1002B000540779017D016B0171017501AB0180016A
:1002C00086018A019001940198019E01A201AB016F
:1002D000A601AC01B001809180008F7780938000EF
:1002E0000895809180008F7DF9CF80918000877F75
:1002F000F5CF84B58F7784BD089584B58F7DFBCF0E
:100300008091B0008F778093B00008958091B00005
:100310008F7DF9CF809190008F7780939000089522
:10032000809190008F7DF9CF80919000877FF5CFED
:100330008091A0008F778093A00008958091A00005
:100340008F7DF9CF8091A000877FF5CF809120012C
:100350008F77809320010895809120018F7DF9CFC0
:1003600080912001877FF5CFCF93DF93282F30E056
:10037000F901EA5FFD4F8491F901E054FE4FD491F9
:10038000F901E658FE4FC491CC23A1F081110E94DF
:100390004D01EC2FF0E0EE0FFF1FE05AFE4FA5914C
:1003A000B491EC91ED2381E090E009F480E0DF91DD
:1003B000CF91089580E090E0FACF1F93CF93DF9321
:1003C000282F30E0F901EA5FFD4F8491F901E054F4
:1003D000FE4FD491F901E658FE4FC491CC23A9F009
:1003E000162F81110E944D01EC2FF0E0EE0FFF1F40
:1003F000EA5BFE4FA591B4918FB7F894EC9111117F
:1004000008C0D095DE23DC938FBFDF91CF911F9181
:100410000895DE2BF8CFCF93DF9390E0FC01E054FA
:10042000FE4F249186589E4FFC0184918823D1F081
:1004300090E0880F991FFC01E45DFE4FA591B491F7
:10044000FC01EA5BFE4FC591D491623071F49FB715
:10045000F8943C91822F809583238C93E8812E2BF6
:1004600028839FBFDF91CF9108958FB7F894EC91C7
:100470002E2B2C938FBFF6CFE0E2F2E081E0878352
:10048000848B81A386A70895CF92DF92EF92FF928B
:100490000F931F93CF93DF93EC0188810E94B401E7
:1004A000AC0191E04115510509F490E09F83009162
:1004B000AC021091AD022091AE023091AF0288855E
:1004C000981721F00A871B872C873D876E81CA8485
:1004D000DB84EC84FD840C191D092E093F090B30C7
:1004E00011052105310590F08985981779F09987D4
:1004F000452B61F481E068276E83DF91CF911F91D6
:100500000F91FF90EF90DF90CF9008958A810E9425
:10051000DD018F81888780E0F0CF1F920F920FB6A8
:100520000F9211242F933F938F939F93AF93BF9379
:100530008091B5029091B602A091B702B091B80235
:100540003091B40223E0230F2D3758F50196A11DF9
:10055000B11D2093B4028093B5029093B602A0938C
:10056000B702B093B8028091B0029091B102A0910D
:10057000B202B091B3020196A11DB11D8093B002E9
:100580009093B102A093B202B093B302BF91AF9126
:100590009F918F913F912F910F900FBE0F901F90C1
:1005A000189526E8230F0296A11DB11DD2CF78948D
:1005B00084B5826084BD84B5816084BD85B5826068
:1005C00085BD85B5816085BD80916E008160809319
:1005D0006E00109281008091810082608093810082
:1005E0008091810081608093810080918000816092
:1005F000809380008091B10084608093B1008091ED
:10060000B00081608093B0008091910082608093FF
:100610009100809191008160809391008091900081
:100620008160809390008091A10082608093A100FE
:100630008091A10081608093A1008091A0008160E1
:100640008093A0008091210182608093210180919C
:10065000210181608093210180912001816080933C
:10066000200180917A00846080937A0080917A00E2
:10067000826080937A0080917A00816080937A0012
:1006800080917A00806880937A001092C100C2E85D
:10069000D2E062E088810E940B0261E08A810E94C0
:1006A0000B022E9622E0CC3AD20799F7C6E5D2E0AB
:1006B00062E088810E940B0261E08A810E940B0245
:1006C0002E9682E0C038D80799F7C0E2D2E062E007
:1006D00088810E940B0261E08A810E940B022D96A4
:1006E000E2E0C435DE0799F761E08CE00E940B027E
:1006F00061E08DE00E940B027724739400E010E02B
:1007000066246394EE24E394F12C22E0C22ED12CD3
:1007100033E0A32EB12C2FB7F8948091B5029091BD
:10072000B602A091B702B091B8022FBF8093AC027D
:100730009093AD02A093AE02B093AF02C2E8D2E0B4
:10074000CE010E944402882331F08C819D819093D8
:100750008102809380022E96F2E0CC3ADF0781F787
:10076000C6E5D2E0CE010E944402882331F08C819C
:100770009D8190935502809354022E9622E0C038BA
:10078000D20781F7C0E2D2E08F81882309F4D8C074
:1007900088810E94B40121E0892B09F020E02C839C
:1007A0008C818823D9F07D8280911E0290911F0256
:1007B000892BA1F48091AC029091AD02A091AE0280
:1007C000B091AF0280931A0290931B02A0931C0277
:1007D000B0931D02F0921F02E0921E022D9682E05D
:1007E000C435D80789F680911E0290911F0281308E
:1007F000910509F0A7C08091AC029091AD02A09143
:10080000AE02B091AF0240911A0250911B0260916A
:100810001C0270911D02841B950BA60BB70B893B24
:100820009B40A105B10520F0D0921F02C0921E028C
:10083000809154029091550220911402309115023A
:100840008217930709F44DC08130910509F492C0D5
:100850008230910509F495C0892B09F099C0609206
:100860005C0210926A0210927802B0921702A09273
:1008700016028091AC029091AD02A091AE02B091AF
:10088000AF028093040290930502A0930602B093F6
:100890000702AC01BD0144525A4F6F4F7F4F409346
:1008A00008025093090260930A0270930B02AC0194
:1008B000BD014854544F6F4F7F4F409310025093E7
:1008C000110260931202709313028C569E4EAF4F2A
:1008D000BF4F8093140290931502A0931602B09319
:1008E000170280915402909155028130910509F4CC
:1008F00054C08230910509F4E2C0892B09F072C11D
:1009000080915402909155029093150280931402A5
:1009100080918002909181028130910509F467C134
:100920008230910509F4E8C1892B09F0ECC160928D
:100930008802109296021092A4020E943C025FC1AB
:100940001C822ECF029709F073CFE0E2F2E090E034
:1009500080E02481222361F0758282E090E03D9660
:10096000CE17DF07B1F790931F0280931E0260CF6E
:100970001582F5CF10925C0260926A0210927802A2
:1009800078CF10925C0210926A026092780271CF66
:1009900010925502109254026CCF8091AC0290914B
:1009A000AD02A091AE02B091AF024091040250910D
:1009B000050260910602709107021C012D01241AA4
:1009C000350A460A570AB201A1014F3151056105A6
:1009D0007105B8F020912702272520932702209146
:1009E00034022725209334022091410227252093A9
:1009F00041028093040290930502A0930602B093F3
:100A00000702409108025091090260910A02709118
:100A10000B021C012D01241A350A460A570AB2019D
:100A2000A1014F3151056105710568F020914E0219
:100A3000272520934E028093080290930902A093E9
:100A40000A02B0930B024091100250911102609182
:100A50001202709113021C012D01241A350A460A54
:100A6000570AB201A1014F3151056105710540F0EE
:100A70008093100290931102A0931202B09313027C
:100A80004091140250911502609116027091170264
:100A90001C012D01241A350A460A570AB201A10188
:100AA0004F3151056105710508F42ACF8093140276
:100AB00090931502A0931602B093170221CF809154
:100AC000AC029091AD02A091AE02B091AF02409104
:100AD00004025091050260910602709107021C0108
:100AE0002D01241A350A460A570AB201A1014F31D5
:100AF000510561057105A0F02091030220932702A2
:100B0000322F372530933402209341023093030271
:100B10008093040290930502A0930602B09307020B
:100B2000409108025091090260910A0270910B02F3
:100B30001C012D01241A350A460A570AB201A101E7
:100B40004F3151056105710578F02091020227258A
:100B500020934E0220930202809308029093090290
:100B6000A0930A02B0930B0240911002509111021F
:100B700060911202709113021C012D01241A350A92
:100B8000460A570AB201A1014F31510561057105AD
:100B900068F0209101022725209301028093100222
:100BA00090931102A0931202B09313024091140289
:100BB0005091150260911602709117021C012D01CF
:100BC000241A350A460A570AB201A1014F315105CC
:100BD0006105710508F494CE209100022725209329
:100BE000000264CF109255021092540289CE1092E6
:100BF0008802609296021092A4020E943C028091A8
:100C00008002909181029093170280931602809146
:100C10001E0290911F028130910509F47EC008F4F4
:100C200077C0029709F47EC06091880280918402A7
:100C30000E94DD0160919602809192020E94DD0186
:100C40006091A4028091A0020E94DD0160915C028B
:100C5000809158020E94DD0160916A0280916602D3
:100C60000E94DD0160917802809174020E94DD0192
:100C700080E2882E82E0982EF4018581882309F491
:100C800054C04091AC025091AD026091AE0270919F
:100C9000AF0281859285A385B4851A012B01281A9C
:100CA000390A4A0A5B0AD201C101C397A105B105FD
:100CB00038F08085418752876387748787258087CE
:100CC000F401608582810E94DD01FDE08F0E911CA0
:100CD000C815D90589F6609119028CE00E94DD01E2
:100CE000609118028DE00E94DD010115110509F4E3
:100CF00012CD0E9400000FCD109288021092960231
:100D00006092A4021ACE109281021092800277CFD4
:100D1000609218026092190287CF10921802109206
:100D2000190282CF60921802FACF7086C9CF1F9342
:100D3000CF93DF93E2E8F2E08FE290E0918380834B
:100D40008EE290E09383828315821482168217824A
:100D50001086118612861386148615868DE290E021
:100D6000978786878CE290E0918B808B21E030E042
:100D7000338B228B148A158A168A178A108E118E4D
:100D8000128E138E81E390E0958F848F80E390E044
:100D9000978F868F82E090E091A380A312A213A286
:100DA00014A215A216A217A210A611A6E6E5F2E05B
:100DB0004BE250E0518340834AE250E05383428348
:100DC0001582148216821782108611861286138667
:100DD0001486158645E350E05787468744E350E084
:100DE000518B408B338B228B148A158A168A178A73
:100DF000108E118E128E138E23E330E0358F248FE8
:100E000022E330E0378F268F91A380A312A213A292
:100E100014A215A216A217A210A611A6C0E2D2E033
:100E200085E190E09983888385E490E09B838A83C1
:100E30001C821D821E8211E01F83188761E00E94C0
:100E4000DD0184E190E09E878D8784E490E0988BBB
:100E50008F87198A1A8A1B8A1C8B1D8B61E00E945E
:100E6000DD0183E190E09B8F8A8F83E490E09D8F8A
:100E70008C8F1E8E1F8E18A219A31AA361E00E94E8
:100E8000DD0182E190E098A78FA382E490E09AA729
:100E900089A71BA61CA61DA61EA71FA761E0DF91A0
:100EA000CF911F910C94DD01EE0FFF1F881F8BBFA8
:0C0EB0000790F691E02D1994F894FFCF04
:00000001FF
