:100000000C9435010C9466010C9466010C94660105
:100010000C9466010C9466010C9466010C946601C4
:100020000C9466010C9466010C9466010C946601B4
:100030000C9466010C9466010C9466010C946601A4
:100040000C9466010C9466010C9466010C94660194
:100050000C9466010C9466010C9466010C94F903EF
:100060000C9466010C946D040C9443040C9466018A
:100070000C9466010C9466010C9466010C94660164
:100080000C9466010C9466010C9466010C94660154
:100090000C9466010C9466010C9466010C94660144
:1000A0000C9466010C9466010C9466010C94660134
:1000B0000C9466010C9466010C9466010C94660124
:1000C0000C9466010C9466010C9466010C94660114
:1000D0000C9466010C9466010C9466010C94660104
:1000E0000C9466010C94AB010C94EB050C94C701C5
:1000F0000C9453020C9494010C94A5010C943603B7
:100100000C9486010C948C010C94A1010C94C601F2
:100110000C9498010C9490010C94B1020C94CB01B6
:100120000C948F020C9480020C94AF010C94B301D8
:100130000C94E9020C94A3020C94BD010C949B0155
:100140000C94C1010C94B90100002000230026008A
:1001500029002C002F0032000001000003010601DD
:10016000090100002100240027002A002D00300092
:10017000330001010000040107010A010000220010
:10018000250028002B002E00310034000201000061
:10019000050108010B010505050507050808080804
:1001A000020202020A0A080804040404010101010F
:1001B000010101010303030303030303040707070A
:1001C0000C0C0C0C0C0C0C0C0202020206060606AF
:1001D000060606060B0B0B0B0B0B0B0B010210207C
:1001E000200808102040102040800201020108046D
:1001F0000201010204081020408080402010080401
:100200000201800402018040201008040201080459
:10021000020101020408102040800102040810209D
:10022000408000000A0B02090C0D0E0807030401B0
:1002300000000000000000000000000000000000BE
:10024000000000000000000000000000000012118B
:10025000100000000000000000000000000000008E
:100260000000000000000000EB0511241FBECFEFCE
:10027000D1E2DEBFCDBF00E00CBF12E0A0E0B2E0F3
:10028000E8E8FCE000E00BBF02C007900D92AC3242
:10029000B107D9F722E0ACE2B2E001C01D92A63D61
:1002A000B207E1F711E0C5E3D1E000E006C0219715
:1002B0000109802FFE010E943A06C433D10780E075
:1002C0000807A9F70E94A3040C9442060C940000AE
:1002D0008150823108F05AC0E82FF0E08827EC58AE
:1002E000FE4F8F4F0C943A069401980186018C01C1
:1002F0009001C6019B01A101A501AB01AF01B301B2
:10030000B901BD01C601C101C701CB0180918000C7
:100310008F77809380000895809180008F7DF9CF42
:1003200080918000877FF5CF84B58F7784BD089555
:1003300084B58F7DFBCF8091B0008F778093B00024
:1003400008958091B0008F7DF9CF809190008F77D4
:10035000809390000895809190008F7DF9CF8091D7
:100360009000877FF5CF8091A0008F778093A000C9
:1003700008958091A0008F7DF9CF8091A000877FA4
:10038000F5CF809120018F7780932001089580918F
:1003900020018F7DF9CF80912001877FF5CF1F93BA
:1003A000CF93DF93282F30E0F901EE5DFD4F84916C
:1003B000F901E452FE4FD491F901EA56FE4FC4917F
:1003C000CC23A9F0162F81110E946801EC2FF0E0D8
:1003D000EE0FFF1FE458FE4FA591B4918FB7F8942C
:1003E000EC91111108C0D095DE23DC938FBFDF9113
:1003F000CF911F910895DE2BF8CFCF93DF9390E03C
:10040000FC01E452FE4F24918A569E4FFC018491D8
:100410008823D1F090E0880F991FFC01EE59FE4F20
:10042000A591B491FC01E458FE4FC591D49162307E
:1004300071F49FB7F8943C91822F809583238C931D
:10044000E8812E2B28839FBFDF91CF9108958FB72E
:10045000F894EC912E2B2C938FBFF6CF3FB7F894E6
:100460008091350290913602A0913702B091380206
:1004700026B5A89B05C02F3F19F00196A11DB11DFF
:100480003FBFBA2FA92F982F8827BC01CD01620F3B
:10049000711D811D911D42E0660F771F881F991FF6
:1004A0004A95D1F70895AF92BF92CF92DF92EF9223
:1004B000FF920F931F93CF93DF936C017B018B010E
:1004C000040F151FEB015E01AE18BF08C017D1075E
:1004D00059F06991D601ED91FC910190F081E02DE8
:1004E000C6011995892B79F7C501DF91CF911F912D
:1004F0000F91FF90EF90DF90CF90BF90AF90089555
:10050000FC01538D448D252F30E0842F90E0821B19
:10051000930B541710F0CF96089501970895FC019E
:10052000918D828D981761F0A28DAE0FBF2FB11DF6
:100530005D968C91928D9F5F9F73928F90E008954E
:100540008FEF9FEF0895FC01918D828D981731F008
:10055000828DE80FF11D858D90E008958FEF9FEF5C
:100560000895FC01918D228D892F90E0805C9F4F32
:10057000821B91098F739927089589E392E00E9465
:10058000B10221E0892B09F420E0822F0895FC01BB
:10059000A48DA80FB92FB11DA35ABF4F2C91848DE4
:1005A00090E001968F739927848FA689B7892C9341
:1005B000A089B1898C91837080648C93938D848D94
:1005C000981306C00288F389E02D80818F7D808397
:1005D0000895EF92FF920F931F93CF93DF93EC0157
:1005E00081E0888F9B8D8C8D98131AC0E889F989DA
:1005F000808185FF15C09FB7F894EE89FF896083DD
:10060000E889F98980818370806480839FBF81E05D
:1006100090E0DF91CF911F910F91FF90EF9008959F
:10062000F62E0B8D10E00F5F1F4F0F731127E02E7A
:100630008C8D8E110CC00FB607FCFACFE889F989B2
:10064000808185FFF5CFCE010E94C702F1CFEB8DEF
:10065000EC0FFD2FF11DE35AFF4FF0829FB7F89486
:100660000B8FEA89FB8980818062CFCFCF93DF93A4
:10067000EC01888D8823B9F0AA89BB89E889F989BA
:100680008C9185FD03C0808186FD0DC00FB607FCEF
:10069000F7CF8C9185FFF2CF808185FFEDCFCE0122
:1006A0000E94C702E9CFDF91CF91089580E090E0EA
:1006B000892B29F00E94BD0281110E94000080E078
:1006C00090E0892B49F080E090E0892B29F00E948E
:1006D000000081110E94000080E090E0892B49F029
:1006E00080E090E0892B29F00E94000081110E9497
:1006F000000080E090E0892B49F080E090E0892BB9
:1007000029F00E94000081110C9400000895FC0162
:1007100001900020E9F73197AF01481B590BBC014C
:1007200089E392E00C9453028F929F92AF92BF9212
:100730000F931F93CF93DF93CDB7DEB7A1970FB67B
:10074000F894DEBF0FBECDBF19A2423008F44AE0D4
:100750008E010F5D1F4F842E912CB12CA12CA50171
:1007600094010E941806E62FB901CA01EA30F4F498
:10077000E05DD801EE938D01232B242B252B79F7F7
:1007800090E080E0109719F0CD010E948703A196B8
:100790000FB6F894DEBF0FBECDBFDF91CF911F9192
:1007A0000F91BF90AF909F908F900895E95CE1CF3B
:1007B000CF92DF92EF92FF92CF93DF936B017C0198
:1007C0006DE289E392E00E94E902EC016627772757
:1007D000CB016C197D098E099F094AE00E949403A0
:1007E0008C0F9D1FDF91CF91FF90EF90DF90CF9006
:1007F00008951F920F920FB60F9211242F933F93DB
:100800008F939F93AF93BF93809131029091320267
:10081000A0913302B09134023091300223E0230FD3
:100820002D3758F50196A11DB11D209330028093FC
:10083000310290933202A0933302B093340280913C
:10084000350290913602A0913702B091380201969C
:10085000A11DB11D8093350290933602A0933702FB
:10086000B0933802BF91AF919F918F913F912F919B
:100870000F900FBE0F901F90189526E8230F029639
:10088000A11DB11DD2CF1F920F920FB60F9211244E
:100890000BB60F922F933F934F935F936F937F937A
:1008A0008F939F93AF93BF93EF93FF9389E392E06E
:1008B0000E94C702FF91EF91BF91AF919F918F91DD
:1008C0007F916F915F914F913F912F910F900BBE50
:1008D0000F900FBE0F901F9018951F920F920FB69A
:1008E0000F9211240BB60F922F938F939F93EF9338
:1008F000FF93E0914902F0914A028081E0914F021A
:10090000F091500282FD1DC09081809152028F5F54
:100910008F7320915302821741F0E0915202F0E070
:10092000E75CFD4F958F80935202FF91EF919F916D
:100930008F912F910F900BBE0F900FBE0F901F90B5
:1009400018958081F2CF789484B5826084BD84B597
:10095000816084BD85B5826085BD85B5816085BDBA
:1009600080916E00816080936E0010928100809172
:1009700081008260809381008091810081608093FA
:100980008100809180008160809380008091B1001F
:1009900084608093B1008091B00081608093B0004A
:1009A000809191008260809391008091910081609C
:1009B000809391008091900081608093900080915D
:1009C000A10082608093A1008091A100816080934A
:1009D000A1008091A00081608093A00080912101FE
:1009E00082608093210180912101816080932101A7
:1009F0008091200181608093200180917A00846041
:100A000080937A0080917A00826080937A0080914E
:100A10007A00816080937A0080917A008068809368
:100A20007A001092C10002E112E0CAE1D2E08881AE
:100A3000229662E00E94FD01F80180810E5F1F4F47
:100A400061E00E94FD01F2E0C232DF0781F761E060
:100A50008DE00E94FD01E0914902F0914A0282E09E
:100A60008083E0914502F09146021082E0914702B6
:100A7000F09148028FEC808310925102E0914D0278
:100A8000F0914E0286E08083E0914B02F0914C029F
:100A9000808180618083E0914B02F0914C028081E3
:100AA00088608083E0914B02F0914C0280818068E5
:100AB0008083E0914B02F0914C0280818F7D808396
:100AC000CCE2D2E002E112E02AE1222E22E0322E34
:100AD000C12CD12C7601F101219131911F013327D5
:100AE000F901EE5DFD4F8491F901E452FE4FB4909F
:100AF000F901EA56FE4FA490AA2079F081110E94D4
:100B00006801EA2DF0E0EE0FFF1FE85BFE4FA591B4
:100B1000B491EC91BE2281E009F480E08170888379
:100B20004AE0C701B6010E94940382E292E00E946B
:100B30008703688170E090E080E04AE00E949403BF
:100B400084E292E00E948703F80180810E5F1F4FCC
:100B500098819923E1F160E00E94CF010E942E026A
:100B60002B013C0188EB882E8BE0982EA12CB12C18
:100B70000E942E026419750986099709683E734020
:100B800081059105A8F3F1E08F1A9108A108B10839
:100B900028EE420E23E0521E611C711C8114910448
:100BA000A104B10429F72196FFEFCF1ADF0AEF0A5B
:100BB000FF0A24E0C216D104E104F10409F08BCF4E
:100BC00088E292E00E9487030E94560379CF61E099
:100BD0000E94CF01E8CFE9E3F2E01382128288EEAF
:100BE00093E0A0E0B0E084839583A683B78384E09C
:100BF00092E09183808385EC90E09587848784ECF4
:100C000090E09787868780EC90E0918B808B81ECD9
:100C100090E0938B828B82EC90E0958B848B86ECBA
:100C200090E0978B868B118E128E138E148E089502
:100C3000A1E21A2EAA1BBB1BFD010DC0AA1FBB1FE0
:100C4000EE1FFF1FA217B307E407F50720F0A21B52
:100C5000B30BE40BF50B661F771F881F991F1A94BF
:100C600069F760957095809590959B01AC01BD01E9
:100C7000CF010895EE0FFF1F881F8BBF0790F691DD
:080C8000E02D1994F894FFCF58
:100C880000000000E902530280023603B1028F021D
:100C9800A3020400050006000700080009000A0076
:0C0CA8000B003E00207C20000D0A000024
:00000001FF
