:100000000C9462000C948A000C948A000C948A0070
:100010000C948A000C948A000C948A000C948A0038
:100020000C948A000C948A000C948A000C948A0028
:100030000C948A000C948A000C948A000C948A0018
:100040000C94B4040C948A000C9445050C941F0580
:100050000C948A000C948A000C948A000C948A00F8
:100060000C948A000C948A000000000024002700F1
:100070002A0000000000250028002B0000000000DE
:1000800023002600290004040404040404040202DA
:100090000202020203030303030301020408102007
:1000A0004080010204081020010204081020000012
:1000B0000008000201000003040700000000000027
:1000C0000000180511241FBECFEFD8E0DEBFCDBF62
:1000D00011E0A0E0B1E0EEE4FBE002C005900D927B
:1000E000AC31B107D9F721E0ACE1B1E001C01D921C
:1000F000A33CB207E1F710E0C2E6D0E004C02197CC
:10010000FE010E949F05C136D107C9F70E940F0565
:100110000C94A5050C94000008958330B1F060F0B4
:100120008730E9F0883009F1843021F5E0E8F0E02B
:1001300080818F7D80830895813069F0823021F441
:1001400084B58F7D84BD08950895E0E8F0E0808156
:100150008F778083089584B58F7784BD0895E0EB11
:10016000F0E080818F7780830895E0EBF0E080817C
:100170008F7D80830895CF93DF93282F30E0F9019E
:10018000E255FF4F8491F901E656FF4FD491F901F2
:10019000EA57FF4FC491CC23B1F081110EC0EC2F70
:1001A000F0E0EE0FFF1FE458FF4FA591B491EC91E2
:1001B000ED2331F490E080E008C00E948D00EFCF85
:1001C00081E090E002C090E080E0DF91CF9108955F
:1001D0001F93CF93DF93282F30E0F901E255FF4FB3
:1001E0008491F901E656FF4F1491F901EA57FF4F48
:1001F000C491CC23A9F0D62F811116C0EC2FF0E0CA
:10020000EE0FFF1FEE58FF4FA591B4918FB7F894F2
:10021000D1110DC09C91E12FE095E923EC938FBFA4
:10022000DF91CF911F9108950E948D00E7CFEC914F
:10023000E12BEC93F4CFCF93DF9390E0FC01E656F3
:10024000FF4F24918A579F4FFC018491882319F115
:1002500090E0880F991FFC01E859FF4FA591B491D8
:10026000FC01EE58FF4FC591D491662349F06230EE
:10027000A9F08FB7F894EC91E22BEC938FBF0BC0F1
:100280009FB7F8948C91E22FE0958E238C93888110
:10029000E823E8839FBFDF91CF9108959FB7F8943B
:1002A0003C91822F809583238C93E881E22BE88315
:1002B0009FBFF1CF789484B5826084BD84B581609E
:1002C00084BD85B5826085BD85B5816085BDEEE65E
:1002D000F0E0808181608083E1E8F0E0108280813D
:1002E00082608083808181608083E0E8F0E08081AB
:1002F00081608083E1EBF0E0808184608083E0EBCB
:10030000F0E0808181608083EAE7F0E080818460B2
:10031000808380818260808380818160808380810E
:10032000806880831092C10008953FB7F89480914F
:10033000BF019091C001A091C101B091C20126B549
:10034000A89B05C02F3F19F00196A11DB11D3FBF0D
:10035000BA2FA92F982F8827BC01CD01620F711DDC
:10036000811D911D660F771F881F991F660F771FCC
:10037000881F991F08958F929F92AF92BF92CF923C
:10038000DF92EF92FF926B017C010E9495014B017D
:100390005C011BC021E0C21AD108E108F10888EE17
:1003A000880E83E0981EA11CB11CC114D104E10485
:1003B000F10459F00E949501681979098A099B098D
:1003C000683E73408105910528F7C114D104E1040A
:1003D000F10459F7FF90EF90DF90CF90BF90AF906E
:1003E0009F908F9008950895DC01ED91FC9101900C
:1003F000F081E02D09950895CF92DF92EF92FF9260
:100400000F931F93CF93DF938C01DB01D0E0C0E00B
:100410007A0181E0E81AF108452BA1F0F80180810A
:100420009181FC01208131816D01FFEFCF1ADF0A3C
:100430006C91C801F9010995892B21F02196A7013A
:10044000D601E6CFCE01DF91CF911F910F91FF90A2
:10045000EF90DF90CF900895019709F008956F3FD6
:100460007F4FE1F7EDE1F1E01382128288EE93E035
:10047000A0E0B0E084839583A683B78384E091E015
:100480009183808385EC90E09587848784EC90E06D
:100490009787868780EC90E0918B808B81EC90E051
:1004A000938B828B82EC90E0958B848B86EC90E032
:1004B000978B868B118E128E138E148ECFCFFC01EC
:1004C000938D848D981720F4891B990B01970895BB
:1004D0002FE330E0291B3109820F932F911D0895DE
:1004E000FC01918D828D981761F0A28DAE0FBF2F08
:1004F000B11D5D968C91928D9F5F9F73928F90E05E
:1005000008958FEF9FEF0895FC01918D828D9817CC
:1005100031F0828DE80FF11D858D90E008958FEF09
:100520009FEF0895FC01218D30E0205C3F4F828DCC
:10053000A901481B5109CA018F73992708958DE1BC
:1005400091E00E94920221E0892B09F420E0822FA1
:100550000895CF92DF92EF92FF921F93CF93DF9394
:10056000EC016A017B01122F60E079E08DE390E0FD
:10057000A70196010E947D052150310941095109C9
:100580005695479537952795E889F98982E08083C4
:10059000C11481EED806E104F10421F0211580E1B7
:1005A000380798F0E889F989108260E874E88EE1EC
:1005B00090E0A70196010E947D0521503109410973
:1005C00051095695479537952795EC85FD853083DC
:1005D000EE85FF852083188EEC89FD891083EA89DA
:1005E000FB89808180618083EA89FB8980818860C2
:1005F0008083EA89FB89808180688083EA89FB891E
:1006000080818F7D8083DF91CF911F91FF90EF904C
:10061000DF90CF900895FC01A48DA80FB92FB11DD4
:10062000A35ABF4F2C91848D90E001968F739078E0
:10063000848FA689B7892C93A089B1898C91837006
:1006400080648C93938D848D981308950288F38928
:10065000E02D80818F7D8083F8CF0F931F93CF9300
:10066000DF93EC0181E0888F9B8D8C8D9817B1F022
:10067000062F8B8D90E001968F739078182F8C8DBC
:1006800081131EC00FB607FCFACFE889F989808173
:1006900085FFF5CFCE010E940B03F1CFE889F989E0
:1006A000808185FFE5CF9FB7F894EE89FF8960834D
:1006B000E889F98980818370806480839FBF10C03E
:1006C000EB8DEC0FFD2FF11DE35AFF4F00839FB719
:1006D000F8941B8FEA89FB898081806280839FBFA9
:1006E00081E090E0DF91CF911F910F910895CF931A
:1006F000DF93EC01888D811104C00DC00FB607FE99
:100700000DC0EA89FB89808185FDF8CFA889B98968
:100710008C9186FFF3CFDF91CF910895808185FF83
:10072000F0CFE889F989808185FFEBCFCE010E9467
:100730000B03E7CF80E090E0892B21F00E949F021D
:10074000811101C008950E940000FCCF62E088E0A2
:100750000E941B0161E084E00E941B0161E08DE0CA
:100760000E941B0126E040E855E260E070E08DE168
:1007700091E00E94A9020895DF92EF92FF920F93F9
:100780001F93CF93DF93CDB7DEB7A1970FB6F89441
:10079000DEBF0FBECDBF7C01CB01BA01D22E19A2A4
:1007A00021E02D1520F48E010F5D1F4F0EC00F2E7E
:1007B000FAE0DF2EF02DF7CFE95CD801EE938D0142
:1007C000611571058105910579F02D2D30E050E01E
:1007D00040E00E947D05E62F622F732F842F952F16
:1007E000EA3054F7E05DE9CF1097F9F0FD01019090
:1007F0000020E9F73197AF014A1B5B0BD701ED9160
:10080000FC910280F381E02DB801C7010995A19602
:100810000FB6F894DEBF0FBECDBFDF91CF911F9111
:100820000F91FF90EF90DF90089590E080E0EFCF80
:10083000CF92DF92EF92FF920F931F93CF93DF93AC
:10084000EC016A017B012115310581F4E881F98110
:100850000190F081E02D642F0995DF91CF911F91D8
:100860000F91FF90EF90DF90CF9008952A303105DF
:10087000C1F4FF2024F02AE00E94BC03EECF6DE219
:100880000E94F4018C0144275527BA014C195D09D7
:100890006E097F092AE0CE010E94BC03800F911FE0
:1008A000DCCF0E94BC03D9CF9A01AB01770F660B56
:1008B000770B0E9418040895DC01ED91FC910280F1
:1008C000F381E02D42E050E062E171E00995089586
:1008D0006115710581F0FB0101900020E9F7319766
:1008E000AF01461B570BDC01ED91FC910280F381B7
:1008F000E02D0995089590E080E0089588E00E9439
:10090000BB0021E0892B09F420E020931C0165E164
:1009100071E08DE191E00E94680460911C0170E03B
:100920004AE050E08DE191E00E94540467E171E0FB
:100930008DE191E00E94680480911C01811109C041
:1009400061E084E00E94E8008DE191E00E945C0497
:10095000089560E084E00E94E80068EB7BE080E0BE
:1009600090E00E94BB01F0CF1F920F920FB60F9242
:1009700011240F931F932F933F934F935F936F9384
:100980007F938F939F93AF93BF930091BB0110917F
:10099000BC012091BD013091BE019091BA01B90115
:1009A000A8014F5F5F4F6F4F7F4F83E0890F8D37F7
:1009B00040F086E8890FB901A8014E5F5F4F6F4F85
:1009C0007F4F8093BA014093BB015093BC01609369
:1009D000BD017093BE018091BF019091C001A091B3
:1009E000C101B091C2010196A11DB11D8093BF014B
:1009F0009093C001A093C101B093C201BF91AF9188
:100A00009F918F917F916F915F914F913F912F9126
:100A10001F910F910F900FBE0F901F9018950E947D
:100A20005A010E94A6030E947E040E949A03FBCFF3
:100A30006FEF7FEF81E090E00E942C0208951F92FB
:100A40000F920FB60F9211242F933F934F935F9302
:100A50006F937F938F939F93AF93BF93EF93FF9386
:100A60008DE191E00E940B03FF91EF91BF91AF9157
:100A70009F918F917F916F915F914F913F912F91B6
:100A80000F900FBE0F901F9018951F920F920FB6E8
:100A90000F9211242F938F939F93AF93BF93EF9354
:100AA000FF93E0912D01F0912E01808182FD14C011
:100AB000EDE1F1E0A689B7892C91818D8F5F8F736D
:100AC000928D891771F0DF01E18DF0E0E35EFE4F5A
:100AD000258F59968C9305C0E0913301F091340134
:100AE0008081FF91EF91BF91AF919F918F912F9155
:100AF0000F900FBE0F901F901895A1E21A2EAA1BFF
:100B0000BB1BFD010DC0AA1FBB1FEE1FFF1FA217BD
:100B1000B307E407F50720F0A21BB30BE40BF50BBA
:100B2000661F771F881F991F1A9469F76095709543
:100B3000809590959B01AC01BD01CF010895EE0F0A
:0E0B4000FF1F0590F491E02D0994F894FFCF6B
:100B4E00000000002D03FC015F0277039202700289
:0C0B5E0084020D0A003E00207C200000F4
:00000001FF
