:100000000C9462000C947F000C947F000C947F0091
:100010000C947F000C947F000C947F000C947F0064
:100020000C947F000C947F000C947F000C947F0054
:100030000C947F000C947F000C947F000C947F0044
:100040000C94D5000C947F000C947F000C947F00DE
:100050000C947F000C947F000C947F000C947F0024
:100060000C947F000C947F00000000002400270007
:100070002A000000000023002600290000000000E4
:10008000250028002B0004040404040404040202D4
:100090000202020203030303030301020408102007
:1000A0004080010204081020010204081020000012
:1000B0000008000201000003040700000000000027
:1000C00000007E0211241FBECFEFD8E0DEBFCDBFFF
:1000D00021E0A0E0B1E001C01D92AD31B207E1F72F
:1000E00010E0C2E6D0E004C02197FE010E948B021E
:1000F000C136D107C9F70E941F010C9491020C94DC
:100100000000833081F028F4813099F08230A9F02A
:1001100008958730A9F08830C9F08430B1F4809117
:1001200080008F7D03C0809180008F778093800056
:10013000089584B58F7784BD089584B58F7DFBCFF6
:100140008091B0008F778093B00008958091B000C7
:100150008F7DF9CF1F93CF93DF93E2EBF0E0949183
:10016000EEE9F0E0D491EAE8F0E0C491CC23B9F0F4
:10017000182F992319F0892F0E948100EC2FF0E0AD
:10018000EE0FFF1FE458FF4FA591B4918FB7F8947D
:10019000EC91111108C0D095DE23DC938FBFDF9165
:1001A000CF911F910895DE2BF8CF1F920F920FB6BB
:1001B0000F9211242F933F938F939F93AF93BF93ED
:1001C0008091190190911A01A0911B01B0911C011D
:1001D0003091180123E0230F2D3758F50196A11D0A
:1001E000B11D209318018093190190931A01A093D7
:1001F0001B01B0931C018091140190911501A091F5
:100200001601B09117010196A11DB11D8093140133
:1002100090931501A0931601B0931701BF91AF9170
:100220009F918F913F912F910F900FBE0F901F9034
:10023000189526E8230F0296A11DB11DD2CFCF93AA
:10024000DF931F92CDB7DEB7789484B5826084BD0A
:1002500084B5816084BD85B5826085BD85B58160CA
:1002600085BD80916E00816080936E001092810048
:100270008091810082608093810080918100816003
:1002800080938100809180008160809380008091C4
:10029000B10084608093B1008091B0008160809350
:1002A000B00080917A00846080937A0080917A0017
:1002B000826080937A0080917A00816080937A00D6
:1002C00080917A00806880937A001092C100E2EAFF
:1002D000F0E024910EE810E0F80184918823C9F041
:1002E00090E0880F991FFC01E859FF4FA591B49148
:1002F000FC01E458FF4F459154919FB7F8943C910D
:10030000822F809583238C93FA018081282B208370
:100310009FBFEEE9F0E02491EAE8F0E084918823C1
:1003200099F090E0880F991FFC01E859FF4FA591C3
:10033000B491FC01E458FF4F859194918FB7F894E4
:10034000EC91E22BEC938FBF96EB292E90E0392EA7
:100350009924939420E0E22E20E0F22ECC24C39442
:10036000D12C42E0A42EB12C8FB7F8944090190103
:1003700050901A0160901B0170901C018FBF409239
:100380001001509211016092120170921301F1015B
:100390008491E2EAF0E0F491F983F80184908820F6
:1003A00009F181110E948100E82DF0E0EE0FFF1F9E
:1003B000EE58FF4FA591B4912C9180910E01909130
:1003C0000F01F9812F2371F0892B41F440920A012A
:1003D00050920B0160920C0170920D01D0920F01AE
:1003E000C0920E0180910A0190910B01A0910C0125
:1003F000B0910D01A3019201281B390B4A0B5B0B35
:10040000DA01C901813A9F40A105B10550F0809100
:100410000E0190910F010197A9F4B0920F01A092E3
:100420000E0180910E0190910F018130910599F09C
:1004300070F00297B1F1E114F10409F495CF0E9434
:10044000000092CF10920F0110920E01EACF81E0CE
:100450000E94AA00F0CF8091060190910701A0911F
:100460000801B0910901A3019201281B390B4A0B25
:100470005B0BDA01C90181359105A105B105D8F2FF
:1004800040920601509207016092080170920901A2
:1004900080900501882D0E94AA0089248092050180
:1004A000CACF8091060190910701A0910801B091F7
:1004B0000901B301A201481B590B6A0B7B0B809108
:1004C000010190910201A0910301B09104018417F0
:1004D0009507A607B70708F0AECF409206015092E5
:1004E0000701609208017092090180900001882D37
:1004F0000E94AA008924809200019DCF80EA90E0AA
:10050000A0E0B0E08093010190930201A093030169
:10051000B09304010895EE0FFF1F0590F491E02DB4
:060520000994F894FFCFDE
:00000001FF
