:100000000C9462000C948A000C948A000C948A0070
:100010000C948A000C948A000C948A000C948A0038
:100020000C948A000C948A000C948A000C948A0028
:100030000C948A000C948A000C948A000C948A0018
:100040000C94AB020C948A000C941B030C94F502E4
:100050000C948A000C948A000C948A000C948A00F8
:100060000C948A000C948A000000000023002600F3
:10007000290000000000240027002A0000000000E2
:10008000250028002B0004040404040404040202D4
:100090000202020203030303030301020408102007
:1000A0004080010204081020010204081020000012
:1000B0000008000201000003040700000000000027
:1000C00000004D0311241FBECFEFD8E0DEBFCDBF2F
:1000D00011E0A0E0B1E0EAE1FBE002C005900D9282
:1000E000AE31B107D9F721E0AEE1B1E001C01D9218
:1000F000A83FB207E1F710E0C2E6D0E004C02197C4
:10010000FE010E948505C136D107C9F70E94B403DC
:100110000C948B050C940000833081F028F481301E
:1001200099F08230A9F008958730A9F08830C9F09D
:100130008430B1F4809180008F7D03C08091800075
:100140008F7780938000089584B58F7784BD08955C
:1001500084B58F7DFBCF8091B0008F778093B00006
:1001600008958091B0008F7DF9CF1F93CF93DF93D7
:10017000282F30E0F901E255FF4F8491F901E6564E
:10018000FF4FD491F901EA57FF4FC491CC23A9F056
:10019000162F81110E948C00EC2FF0E0EE0FFF1F54
:1001A000E458FF4FA591B4918FB7F894EC911111D9
:1001B00008C0D095DE23DC938FBFDF91CF911F91D4
:1001C0000895DE2BF8CFCF93DF9390E0FC01E65645
:1001D000FF4F24918A579F4FFC0184918823D1F0CF
:1001E00090E0880F991FFC01EE58FF4FA591B49144
:1001F000FC01E458FF4FC591D491623071F49FB770
:10020000F8943C91822F809583238C93E8812E2B48
:1002100028839FBFDF91CF9108958FB7F894EC9119
:100220002E2B2C938FBFF6CFAF92BF92CF92DF923F
:10023000EF92FF920F931F93CF93DF936C017B019B
:100240008B01040F151FEB015E01AE18BF08C0172C
:10025000D10759F06991D601ED91FC910190F0819F
:10026000E02DC6010995892B79F7C501DF91CF9162
:100270001F910F91FF90EF90DF90CF90BF90AF90C4
:100280000895FC01538D448D252F30E0842F90E09C
:10029000821B930B541710F0CF9608950197089581
:1002A000FC01918D828D981761F0A28DAE0FBF2F4A
:1002B000B11D5D968C91928D9F5F9F73928F90E0A0
:1002C00008958FEF9FEF0895FC01918D828D98170F
:1002D00031F0828DE80FF11D858D90E008958FEF4C
:1002E0009FEF0895FC01918D228D892F90E0805C15
:1002F0009F4F821B91098F739927089581E391E0A5
:100300000E94720121E0892B09F420E0822F0895D8
:1003100080E090E0892B29F00E947E0181110C94ED
:1003200000000895FC01A48DA80FB92FB11DA35A98
:10033000BF4F2C91848D90E001968F739927848F05
:10034000A689B7892C93A089B1898C918370806428
:100350008C93938D848D981306C00288F389E02DC9
:1003600080818F7D80830895EF92FF920F931F937A
:10037000CF93DF93EC0181E0888F9B8D8C8D981358
:100380001AC0E889F989808185FF15C09FB7F89464
:10039000EE89FF896083E889F989808183708064B0
:1003A00080839FBF81E090E0DF91CF911F910F91FB
:1003B000FF90EF900895F62E0B8D10E00F5F1F4F0A
:1003C0000F731127E02E8C8D8E110CC00FB607FC19
:1003D000FACFE889F989808185FFF5CFCE010E94A7
:1003E0009201F1CFEB8DEC0FFD2FF11DE35AFF4F82
:1003F000F0829FB7F8940B8FEA89FB898081806235
:10040000CFCFCF93DF93EC01888D8823B9F0AA89F1
:10041000BB89E889F9898C9185FD03C0808186FDBF
:100420000DC00FB607FCF7CF8C9185FFF2CF80810E
:1004300085FFEDCFCE010E949201E9CFDF91CF91F0
:100440000895FC0101900020E9F73197AF01481BA6
:10045000590BBC0181E391E00C9414018F929F929F
:10046000AF92BF92CF92DF92EF92FF920F931F93C2
:10047000CF93DF93CDB7DEB7A1970FB6F894DEBF69
:100480000FBECDBF6C01990FEE08FF08F7FE41C00B
:100490006DE281E391E00E94B4018C0122273327B1
:1004A000A9012C193D094E095F0919A2CE018196B7
:1004B0007C019AE0892E912CA12CB12CCA01B901A2
:1004C000A50194010E946305605DF70162937F01BD
:1004D000211531054105510589F790E080E03097FD
:1004E00019F0CF010E942102800F911FA1960FB633
:1004F000F894DEBF0FBECDBFDF91CF911F910F915A
:10050000FF90EF90DF90CF90BF90AF909F908F9033
:100510000895A701960119A28E010F5D1F4F8AE071
:10052000C82ED12CE12CF12CCA01B901A7019601EA
:100530000E946305605DF80162938F01211531050A
:100540004105510589F790E080E0309779F2CF01BD
:100550000E942102CBCF1F920F920FB60F9211244F
:100560002F933F938F939F93AF93BF9380912D01D0
:1005700090912E01A0912F01B091300130912C016A
:1005800023E0230F2D3758F50196A11DB11D2093AF
:100590002C0180932D0190932E01A0932F01B093F5
:1005A00030018091280190912901A0912A01B091F8
:1005B0002B010196A11DB11D809328019093290163
:1005C000A0932A01B0932B01BF91AF919F918F917E
:1005D0003F912F910F900FBE0F901F90189526E816
:1005E000230F0296A11DB11DD2CF1F920F920FB6FD
:1005F0000F9211242F933F934F935F936F937F93A9
:100600008F939F93AF93BF93EF93FF9381E391E019
:100610000E949201FF91EF91BF91AF919F918F91B5
:100620007F916F915F914F913F912F910F900FBEEE
:100630000F901F9018951F920F920FB60F921124D2
:100640002F938F939F93EF93FF93E0914101F0914C
:1006500042018081E0914701F091480182FD1BC079
:10066000908180914A018F5F8F7320914B01821797
:1006700041F0E0914A01F0E0EF5CFE4F958F8093EE
:100680004A01FF91EF919F918F912F910F900FBE93
:100690000F901F9018958081F4CFE1E3F1E0138271
:1006A000128288EE93E0A0E0B0E084839583A68375
:1006B000B78384E091E09183808385EC90E0958717
:1006C000848784EC90E09787868780EC90E0918B1C
:1006D000808B81EC90E0938B828B82EC90E0958B09
:1006E000848B86EC90E0978B868B118E128E138E06
:1006F000148EEEECF1E088E090E09183808387E057
:1007000090E093838283158214821682178210866A
:100710001186128613861486158689E090E09787E5
:10072000868786E090E0918B808B81E090E0938BD0
:10073000828B148A158A168A178A108E118E128E51
:10074000138E8AE090E0958F848F85E090E0978FFC
:10075000868F11A210A212A213A214A215A216A291
:1007600017A210A611A60895789484B5826084BD5E
:1007700084B5816084BD85B5826085BD85B58160A5
:1007800085BD80916E00816080936E001092810023
:1007900080918100826080938100809181008160DE
:1007A000809381008091800081608093800080919F
:1007B000B10084608093B1008091B000816080932B
:1007C000B00080917A00846080937A0080917A00F2
:1007D000826080937A0080917A00816080937A00B1
:1007E00080917A00806880937A001092C100E09135
:1007F0004101F091420182E08083E0913D01F0915E
:100800003E011082E0913F01F09140018FEC808326
:1008100010924901E0914501F091460186E0808304
:10082000E0914301F0914401808180618083E091F7
:100830004301F0914401808188608083E09143010D
:10084000F0914401808180688083E0914301F091C0
:10085000440180818F7D8083C8EFD1E00EEC11E0F0
:1008600062E0F80180810E94E30061E0F80182818A
:100870000E94E300025F1F4FC017D10789F761E0B4
:100880008CE00E94E30061E08DE00E94E300992487
:10089000939490E0E92E90E0F92EBB24B39422E0EB
:1008A000C22ED12C2FB7F89480912D0190912E015A
:1008B000A0912F01B09130012FBF8093240190931C
:1008C0002501A0932601B0932701CEECD1E0288129
:1008D00039813327F901E255FF4F8491F901E6563A
:1008E000FF4FA490F901EA57FF4F8490882009F444
:1008F000C0C081110E948C00E82DF0E0EE0FFF1FB8
:10090000E859FF4FA591B491EC91AE2231E020E07F
:1009100009F430E0832F922F782F71707F834090FD
:1009200024015090250160902601709027013885A0
:10093000731721F04A865B866C867D866E812A85D8
:100940003B854C855D85421A530A640A750AF3E3B8
:100950004F1651046104710408F48EC03985731771
:1009600009F48AC07987892B09F086C069256E83CE
:100970008C819D81909323018093220188819981AC
:100980000E942E0282E191E00E9421028E8190E07D
:100990000E942E0286E191E00E9421022E960C1701
:1009A0001D0709F094CF8AE191E00E942102809115
:1009B0002001909121018130910509F063C080915F
:1009C000240190912501A0912601B0912701893B36
:1009D0009B40A105B10520F0D0922101C0922001D9
:1009E00080912201909123018130910509F452C038
:1009F0008230910509F453C0892B31F4B092D401AF
:100A00001092E2011092F001809120019091210159
:100A10008130910509F44FC008F448C0029709F4E9
:100A20004FC06091D4018091D0010E94B5006091C7
:100A3000E2018091DE010E94B5006091F001809199
:100A4000EC010E94B50060911F018CE00E94B5008E
:100A500060911E018DE00E94B500E114F10409F4DB
:100A600021CF0E947E01882309F41CCF0E94000040
:100A700019CF90E080E050CF8A810E94B5008F812D
:100A800088877CCF029709F0ABCF1092210110929A
:100A90002001A6CF1092D401B092E201B3CF109200
:100AA000D4011092E201B092F001AECFB0921E01DB
:100AB000B0921F01B6CF10921E0110921F01B1CF4C
:100AC000B0921E01FACFA1E21A2EAA1BBB1BFD0198
:100AD0000DC0AA1FBB1FEE1FFF1FA217B307E4071D
:100AE000F50720F0A21BB30BE40BF50B661F771F75
:100AF000881F991F1A9469F7609570958095909555
:100B00009B01AC01BD01CF010895EE0FFF1F0590C1
:0A0B1000F491E02D0994F894FFCF52
:100B1A0000000000B40114014101010272015001F8
:0E0B2A006401203E2000207C20000D0A000007
:00000001FF
