:100000000C9462000C948A000C948A000C948A0070
:100010000C948A000C948A000C948A000C948A0038
:100020000C948A000C948A000C948A000C948A0028
:100030000C948A000C948A000C948A000C948A0018
:100040000C94FA010C948A000C946A020C944402F9
:100050000C948A000C948A000C948A000C948A00F8
:100060000C948A000C948A000000000024002700F1
:100070002A000000000023002600290000000000E4
:10008000250028002B0004040404040404040202D4
:100090000202020203030303030301020408102007
:1000A0004080010204081020010204081020000012
:1000B0000008000201000003040700000000000027
:1000C0000000EB0311241FBECFEFD8E0DEBFCDBF91
:1000D00011E0A0E0B1E0E0E4F8E002C005900D928C
:1000E000AC31B107D9F721E0ACE1B1E001C01D921C
:1000F000AC3CB207E1F710E0C2E6D0E004C02197C3
:10010000FE010E941804C136D107C9F70E949C0263
:100110000C941E040C940000833081F028F481308C
:1001200099F08230A9F008958730A9F08830C9F09D
:100130008430B1F4809180008F7D03C08091800075
:100140008F7780938000089584B58F7784BD08955C
:1001500084B58F7DFBCF8091B0008F778093B00006
:1001600008958091B0008F7DF9CF1F93CF93DF93D7
:10017000E2EBF0E09491EEE9F0E0D491EAE8F0E00F
:10018000C491CC23B9F0182F992319F0892F0E941C
:100190008C00EC2FF0E0EE0FFF1FE458FF4FA5910D
:1001A000B4918FB7F894EC91111108C0D095DE236B
:1001B000DC938FBFDF91CF911F910895DE2BF8CF95
:1001C000AF92BF92CF92DF92EF92FF920F931F9365
:1001D000CF93DF936C017B018B01040F151FEB01A3
:1001E0005E01AE18BF08C017D10759F06991D6015A
:1001F000ED91FC910190F081E02DC6010995892BCC
:1002000079F7C501DF91CF911F910F91FF90EF908A
:10021000DF90CF90BF90AF900895FC01538D448D37
:10022000252F30E0842F90E0821B930B541710F0A1
:10023000CF96089501970895FC01918D828D9817AE
:1002400061F0A28DAE0FBF2FB11D5D968C91928D86
:100250009F5F9F73928F90E008958FEF9FEF0895B7
:10026000FC01918D828D981731F0828DE80FF11D80
:10027000858D90E008958FEF9FEF0895FC01918D9B
:10028000228D892F90E0805C9F4F821B91098F7394
:10029000992708958FE291E00E943E0121E0892B89
:1002A00009F420E0822F089580E090E0892B29F066
:1002B0000E944A0181110C9400000895FC01A48D54
:1002C000A80FB92FB11DA35ABF4F2C91848D90E078
:1002D00001968F739927848FA689B7892C93A0895B
:1002E000B1898C91837080648C93938D848D9813E5
:1002F00006C00288F389E02D80818F7D8083089578
:10030000EF92FF920F931F93CF93DF93EC0181E065
:10031000888F9B8D8C8D98131AC0E889F98980810C
:1003200085FF15C09FB7F894EE89FF896083E8893F
:10033000F98980818370806480839FBF81E090E031
:10034000DF91CF911F910F91FF90EF900895F62EBE
:100350000B8D10E00F5F1F4F0F731127E02E8C8D58
:100360008E110CC00FB607FCFACFE889F98980819D
:1003700085FFF5CFCE010E945E01F1CFEB8DEC0F32
:10038000FD2FF11DE35AFF4FF0829FB7F8940B8FBA
:10039000EA89FB8980818062CFCFCF93DF93EC0124
:1003A000888D8823B9F0AA89BB89E889F9898C915D
:1003B00085FD03C0808186FD0DC00FB607FCF7CF19
:1003C0008C9185FFF2CF808185FFEDCFCE010E9419
:1003D0005E01E9CFDF91CF910895FC0101900020EB
:1003E000E9F73197AF01481B590BBC018FE291E04F
:1003F0000C94E0001F920F920FB60F9211242F93CE
:100400003F938F939F93AF93BF9380912B019091D4
:100410002C01A0912D01B0912E0130912A0123E0F1
:10042000230F2D3758F50196A11DB11D20932A01E8
:1004300080932B0190932C01A0932D01B0932E015A
:100440008091260190912701A0912801B091290166
:100450000196A11DB11D8093260190932701A093C1
:100460002801B0932901BF91AF919F918F913F9146
:100470002F910F900FBE0F901F90189526E8230F15
:100480000296A11DB11DD2CF1F920F920FB60F92EF
:1004900011242F933F934F935F936F937F938F9389
:1004A0009F93AF93BF93EF93FF938FE291E00E94EE
:1004B0005E01FF91EF91BF91AF919F918F917F91DD
:1004C0006F915F914F913F912F910F900FBE0F90C1
:1004D0001F9018951F920F920FB60F9211242F9311
:1004E0008F939F93EF93FF93E0913F01F091400131
:1004F0008081E0914501F091460182FD1BC0908111
:10050000809148018F5F8F7320914901821741F0DC
:10051000E0914801F0E0E15DFE4F958F8093480146
:10052000FF91EF919F918F912F910F900FBE0F90A0
:100530001F9018958081F4CFCF93DF93CDB7DEB7AE
:10054000A1970FB6F894DEBF0FBECDBF789484B5E7
:10055000826084BD84B5816084BD85B5826085BDBF
:1005600085B5816085BD80916E00816080936E004D
:10057000109281008091810082608093810080913F
:1005800081008160809381008091800081608093F0
:1005900080008091B10084608093B1008091B000B0
:1005A00081608093B00080917A00846080937A00AB
:1005B00080917A00826080937A0080917A008160D5
:1005C00080937A0080917A00806880937A001092FC
:1005D000C10002EA10E0F80124915EE8E52E50E047
:1005E000F52EF70184918823C9F090E0880F991FB8
:1005F000FC01E859FF4FA591B491FC01E458FF4F6D
:10060000459154919FB7F8943C91822F8095832314
:100610008C93FA018081282B20839FBFEEE9F0E0C4
:100620002491EAE8F0E08491882399F090E0880F23
:10063000991FFC01E859FF4FA591B491FC01E458C2
:10064000FF4F859194918FB7F894EC91E22BEC9346
:100650008FBFE0913F01F091400182E08083E09103
:100660003B01F0913C011082E0913D01F0913E018F
:100670008FEC808310924701E0914301F091440197
:1006800086E08083E0914101F091420180818061A8
:100690008083E0914101F0914201808188608083F4
:1006A000E0914101F0914201808180688083E09176
:1006B0004101F091420180818F7D808396EBC92EAC
:1006C00090E0D92E20E0A22E20E0B22E2FB7F89491
:1006D00080912B0190912C01A0912D01B0912E01C0
:1006E0002FBF8093220190932301A0932401B09304
:1006F0002501F6018491F8019490F70184908820F7
:1007000079F081110E948C00E82DF0E0EE0FFF1FC0
:10071000EE58FF4FA591B4918C91982281E009F495
:1007200080E081708093210182E191E00E94ED01DF
:100730008091210119A2805D88A3CE0180960E943C
:10074000ED0185E191E00E94ED0180912101882376
:10075000F1F18091220190912301A0912401B091A7
:10076000250140911D0150911E0160911F01709162
:1007700020013C014D01641A750A860A970AB401EA
:10078000A301433351056105710588F080931D0174
:1007900090931E01A0931F01B093200190901C0123
:1007A000892D0E94B50081E0982690921C0189E174
:1007B00091E00E94ED01A114B10409F487CF0E94D9
:1007C0004A01882309F482CF0E9400007FCF81E094
:1007D0000E94B500ECCFEFE2F1E01382128288EEC6
:1007E00093E0A0E0B0E084839583A683B78384E0A0
:1007F00091E09183808385EC90E09587848784ECF9
:1008000090E09787868780EC90E0918B808B81ECDD
:1008100090E0938B828B82EC90E0958B848B86ECBE
:1008200090E0978B868B118E128E138E148E089506
:10083000EE0FFF1F0590F491E02D0994F894FFCF7F
:10084000000000008001E0000D01CD013E011C010F
:0C08500030013E2000207C20000D0A003A
:00000001FF
