:100000000C9462000C948A000C948A000C948A0070
:100010000C948A000C948A000C948A000C948A0038
:100020000C948A000C948A000C948A000C948A0028
:100030000C948A000C948A000C948A000C948A0018
:100040000C9493020C948A000C9403030C94DD022C
:100050000C948A000C948A000C948A000C948A00F8
:100060000C948A000C948A000000000023002600F3
:10007000290000000000240027002A0000000000E2
:10008000250028002B0004040404040404040202D4
:100090000202020203030303030301020408102007
:1000A0004080010204081020010204081020000012
:1000B0000008000201000003040700000000000027
:1000C0000000380411241FBECFEFD8E0DEBFCDBF43
:1000D00011E0A0E0B1E0EEE1F9E002C005900D9280
:1000E000AC32B107D9F721E0ACE2B1E001C01D921A
:1000F000A63DB207E1F710E0C2E6D0E004C02197C8
:10010000FE010E948704C136D107C9F70E9435035A
:100110000C948D040C940000833081F028F481301D
:1001200099F08230A9F008958730A9F08830C9F09D
:100130008430B1F4809180008F7D03C08091800075
:100140008F7780938000089584B58F7784BD08955C
:1001500084B58F7DFBCF8091B0008F778093B00006
:1001600008958091B0008F7DF9CF1F93CF93DF93D7
:10017000282F30E0F901E255FF4F8491F901E6564E
:10018000FF4FD491F901EA57FF4FC491CC23A9F056
:10019000162F81110E948C00EC2FF0E0EE0FFF1F54
:1001A000E458FF4FA591B4918FB7F894EC911111D9
:1001B00008C0D095DE23DC938FBFDF91CF911F91D4
:1001C0000895DE2BF8CFCF93DF9390E0FC01E65645
:1001D000FF4F24918A579F4FFC0184918823D1F0CF
:1001E00090E0880F991FFC01EE58FF4FA591B49144
:1001F000FC01E458FF4FC591D491623071F49FB770
:10020000F8943C91822F809583238C93E8812E2B48
:1002100028839FBFDF91CF9108958FB7F894EC9119
:100220002E2B2C938FBFF6CFAF92BF92CF92DF923F
:10023000EF92FF920F931F93CF93DF936C017B019B
:100240008B01040F151FEB015E01AE18BF08C0172C
:10025000D10759F06991D601ED91FC910190F0819F
:10026000E02DC6010995892B79F7C501DF91CF9162
:100270001F910F91FF90EF90DF90CF90BF90AF90C4
:100280000895FC01538D448D252F30E0842F90E09C
:10029000821B930B541710F0CF9608950197089581
:1002A000FC01918D828D981761F0A28DAE0FBF2F4A
:1002B000B11D5D968C91928D9F5F9F73928F90E0A0
:1002C00008958FEF9FEF0895FC01918D828D98170F
:1002D00031F0828DE80FF11D858D90E008958FEF4C
:1002E0009FEF0895FC01918D228D892F90E0805C15
:1002F0009F4F821B91098F739927089589E391E09D
:100300000E94720121E0892B09F420E0822F0895D8
:1003100080E090E0892B29F00E947E0181110C94ED
:1003200000000895FC01A48DA80FB92FB11DA35A98
:10033000BF4F2C91848D90E001968F739927848F05
:10034000A689B7892C93A089B1898C918370806428
:100350008C93938D848D981306C00288F389E02DC9
:1003600080818F7D80830895EF92FF920F931F937A
:10037000CF93DF93EC0181E0888F9B8D8C8D981358
:100380001AC0E889F989808185FF15C09FB7F89464
:10039000EE89FF896083E889F989808183708064B0
:1003A00080839FBF81E090E0DF91CF911F910F91FB
:1003B000FF90EF900895F62E0B8D10E00F5F1F4F0A
:1003C0000F731127E02E8C8D8E110CC00FB607FC19
:1003D000FACFE889F989808185FFF5CFCE010E94A7
:1003E0009201F1CFEB8DEC0FFD2FF11DE35AFF4F82
:1003F000F0829FB7F8940B8FEA89FB898081806235
:10040000CFCFCF93DF93EC01888D8823B9F0AA89F1
:10041000BB89E889F9898C9185FD03C0808186FDBF
:100420000DC00FB607FCF7CF8C9185FFF2CF80810E
:1004300085FFEDCFCE010E949201E9CFDF91CF91F0
:100440000895FC0101900020E9F73197AF01481BA6
:10045000590BBC0189E391E00C9414018F929F9297
:10046000AF92BF920F931F93CF93DF93CDB7DEB7B9
:10047000A1970FB6F894DEBF0FBECDBF19A24230D0
:1004800008F44AE08E010F5D1F4F842E912CB12C91
:10049000A12CA50194010E946504E62FB901CA01AF
:1004A000EA30F4F4E05DD801EE938D01232B242B88
:1004B000252B79F790E080E0109719F0CD010E948C
:1004C0002102A1960FB6F894DEBF0FBECDBFDF911B
:1004D000CF911F910F91BF90AF909F908F900895F3
:1004E000E95CE1CFCF92DF92EF92FF92CF93DF935F
:1004F0006B017C016DE289E391E00E94B401EC01A3
:1005000066277727CB016C197D098E099F094AE080
:100510000E942E028C0F9D1FDF91CF91FF90EF90D4
:10052000DF90CF9008951F920F920FB60F92112473
:100530002F933F938F939F93AF93BF9380913501F8
:1005400090913601A0913701B0913801309134017A
:1005500023E0230F2D3758F50196A11DB11D2093DF
:1005600034018093350190933601A0933701B09305
:1005700038018091300190913101A0913201B09108
:1005800033010196A11DB11D80933001909331017B
:10059000A0933201B0933301BF91AF919F918F919E
:1005A0003F912F910F900FBE0F901F90189526E846
:1005B000230F0296A11DB11DD2CF1F920F920FB62D
:1005C0000F9211242F933F934F935F936F937F93D9
:1005D0008F939F93AF93BF93EF93FF9389E391E042
:1005E0000E949201FF91EF91BF91AF919F918F91E6
:1005F0007F916F915F914F913F912F910F900FBE1F
:100600000F901F9018951F920F920FB60F92112402
:100610002F938F939F93EF93FF93E0914901F09174
:100620004A018081E0914F01F091500182FD1BC091
:100630009081809152018F5F8F73209153018217B7
:1006400041F0E0915201F0E0E75CFE4F958F80931E
:100650005201FF91EF919F918F912F910F900FBEBB
:100660000F901F9018958081F4CF789484B58260A4
:1006700084BD84B5816084BD85B5826085BD85B546
:10068000816085BD80916E00816080936E001092C4
:10069000810080918100826080938100809181003F
:1006A00081608093810080918000816080938000D0
:1006B0008091B10084608093B1008091B00081602E
:1006C0008093B00080917A00846080937A0080915A
:1006D0007A00826080937A0080917A0081608093B2
:1006E0007A0080917A00806880937A001092C1002D
:1006F00032E2E32E31E0F32E02E111E0CAE1D1E073
:100700008881229662E00E94E300F80180810E5FFA
:100710001F4F61E00E94E300EC16FD0689F761E0DF
:100720008DE00E94E300E0914901F0914A0182E0EE
:100730008083E0914501F09146011082E0914701EC
:10074000F09148018FEC808310925101E0914D01AE
:10075000F0914E0186E08083E0914B01F0914C01D5
:10076000808180618083E0914B01F0914C01808118
:1007700088608083E0914B01F0914C01808180681A
:100780008083E0914B01F0914C0180818F7D8083CB
:1007900020E0C22E20E0D22ECCE2D1E002E111E036
:1007A0009AE1E92E91E0F92E812C912C5401F70168
:1007B000219131917F013327F901E255FF4F849157
:1007C000F901E656FF4F7490F901EA57FF4F649024
:1007D000662079F081110E948C00E62DF0E0EE0F8A
:1007E000FF1FE859FF4FA591B491EC917E2281E063
:1007F00009F480E0817088834AE0C501B4010E9459
:100800002E0282E291E00E942102688170E090E075
:1008100080E04AE00E942E0284E291E00E942102E0
:10082000F80180810E5F1F4F988161E0911101C036
:1008300060E00E94B5002196FFEF8F1A9F0AAF0A71
:10084000BF0A84E088169104A104B10409F0AFCF77
:1008500088E291E00E942102C114D10409F49CCFE6
:100860000E947E01882309F497CF0E94000094CF54
:10087000E9E3F1E01382128288EE93E0A0E0B0E0B9
:1008800084839583A683B78384E091E091838083FA
:1008900085EC90E09587848784EC90E09787868745
:1008A00080EC90E0918B808B81EC90E0938B828B3D
:1008B00082EC90E0958B848B86EC90E0978B868B16
:1008C000118E128E138E148E0895A1E21A2EAA1B79
:1008D000BB1BFD010DC0AA1FBB1FEE1FFF1FA217F0
:1008E000B307E407F50720F0A21BB30BE40BF50BED
:1008F000661F771F881F991F1A9469F76095709576
:10090000809590959B01AC01BD01CF010895EE0F3C
:0E091000FF1F0590F491E02D0994F894FFCF9D
:10091E0000000000B40114014101010272015001F6
:10092E0064010400050006000700080009000A0023
:0C093E000B003E00207C20000D0A000091
:00000001FF
