:100000000C9462000C948A000C948A000C948A0070
:100010000C948A000C948A000C948A000C948A0038
:100020000C948A000C948A000C948A000C948A0028
:100030000C948A000C948A000C948A000C948A0018
:100040000C94AB020C948A000C941B030C94F502E4
:100050000C948A000C948A000C948A000C948A00F8
:100060000C948A000C948A000000000023002600F3
:10007000290000000000240027002A0000000000E2
:10008000250028002B0004040404040404040202D4
:100090000202020203030303030301020408102007
:1000A0004080010204081020010204081020000012
:1000B0000008000201000003040700000000000027
:1000C00000004D0311241FBECFEFD8E0DEBFCDBF2F
:1000D00011E0A0E0B1E0E4E4FBE002C005900D9285
:1000E000A232B107D9F721E0A2E2B1E001C01D922E
:1000F000A73EB207E1F710E0C2E6D0E004C02197C6
:10010000FE010E949A05C136D107C9F70E949303E8
:100110000C94A0050C940000833081F028F4813009
:1001200099F08230A9F008958730A9F08830C9F09D
:100130008430B1F4809180008F7D03C08091800075
:100140008F7780938000089584B58F7784BD08955C
:1001500084B58F7DFBCF8091B0008F778093B00006
:1001600008958091B0008F7DF9CF1F93CF93DF93D7
:10017000282F30E0F901E255FF4F8491F901E6564E
:10018000FF4FD491F901EA57FF4FC491CC23A9F056
:10019000162F81110E948C00EC2FF0E0EE0FFF1F54
:1001A000E458FF4FA591B4918FB7F894EC911111D9
:1001B00008C0D095DE23DC938FBFDF91CF911F91D4
:1001C0000895DE2BF8CFCF93DF9390E0FC01E65645
:1001D000FF4F24918A579F4FFC0184918823D1F0CF
:1001E00090E0880F991FFC01EE58FF4FA591B49144
:1001F000FC01E458FF4FC591D491623071F49FB770
:10020000F8943C91822F809583238C93E8812E2B48
:1002100028839FBFDF91CF9108958FB7F894EC9119
:100220002E2B2C938FBFF6CFAF92BF92CF92DF923F
:10023000EF92FF920F931F93CF93DF936C017B019B
:100240008B01040F151FEB015E01AE18BF08C0172C
:10025000D10759F06991D601ED91FC910190F0819F
:10026000E02DC6010995892B79F7C501DF91CF9162
:100270001F910F91FF90EF90DF90CF90BF90AF90C4
:100280000895FC01538D448D252F30E0842F90E09C
:10029000821B930B541710F0CF9608950197089581
:1002A000FC01918D828D981761F0A28DAE0FBF2F4A
:1002B000B11D5D968C91928D9F5F9F73928F90E0A0
:1002C00008958FEF9FEF0895FC01918D828D98170F
:1002D00031F0828DE80FF11D858D90E008958FEF4C
:1002E0009FEF0895FC01918D228D892F90E0805C15
:1002F0009F4F821B91098F73992708958CE391E09A
:100300000E94720121E0892B09F420E0822F0895D8
:1003100080E090E0892B29F00E947E0181110C94ED
:1003200000000895FC01A48DA80FB92FB11DA35A98
:10033000BF4F2C91848D90E001968F739927848F05
:10034000A689B7892C93A089B1898C918370806428
:100350008C93938D848D981306C00288F389E02DC9
:1003600080818F7D80830895EF92FF920F931F937A
:10037000CF93DF93EC0181E0888F9B8D8C8D981358
:100380001AC0E889F989808185FF15C09FB7F89464
:10039000EE89FF896083E889F989808183708064B0
:1003A00080839FBF81E090E0DF91CF911F910F91FB
:1003B000FF90EF900895F62E0B8D10E00F5F1F4F0A
:1003C0000F731127E02E8C8D8E110CC00FB607FC19
:1003D000FACFE889F989808185FFF5CFCE010E94A7
:1003E0009201F1CFEB8DEC0FFD2FF11DE35AFF4F82
:1003F000F0829FB7F8940B8FEA89FB898081806235
:10040000CFCFCF93DF93EC01888D8823B9F0AA89F1
:10041000BB89E889F9898C9185FD03C0808186FDBF
:100420000DC00FB607FCF7CF8C9185FFF2CF80810E
:1004300085FFEDCFCE010E949201E9CFDF91CF91F0
:100440000895FC0101900020E9F73197AF01481BA6
:10045000590BBC018CE391E00C9414018F929F9294
:10046000AF92BF92CF92DF92EF92FF920F931F93C2
:10047000CF93DF93CDB7DEB7A1970FB6F894DEBF69
:100480000FBECDBF6C01990FEE08FF08F7FE41C00B
:100490006DE28CE391E00E94B4018C0122273327A6
:1004A000A9012C193D094E095F0919A2CE018196B7
:1004B0007C019AE0892E912CA12CB12CCA01B901A2
:1004C000A50194010E947805605DF70162937F01A8
:1004D000211531054105510589F790E080E03097FD
:1004E00019F0CF010E942102800F911FA1960FB633
:1004F000F894DEBF0FBECDBFDF91CF911F910F915A
:10050000FF90EF90DF90CF90BF90AF909F908F9033
:100510000895A701960119A28E010F5D1F4F8AE071
:10052000C82ED12CE12CF12CCA01B901A7019601EA
:100530000E947805605DF80162938F0121153105F5
:100540004105510589F790E080E0309779F2CF01BD
:100550000E942102CBCF1F920F920FB60F9211244F
:100560002F933F938F939F93AF93BF9380913801C5
:1005700090913901A0913A01B0913B01309137013E
:1005800023E0230F2D3758F50196A11DB11D2093AF
:1005900037018093380190933901A0933A01B093C9
:1005A0003B018091330190913401A0913501B091CC
:1005B00036010196A11DB11D809333019093340142
:1005C000A0933501B0933601BF91AF919F918F9168
:1005D0003F912F910F900FBE0F901F90189526E816
:1005E000230F0296A11DB11DD2CF1F920F920FB6FD
:1005F0000F9211242F933F934F935F936F937F93A9
:100600008F939F93AF93BF93EF93FF938CE391E00E
:100610000E949201FF91EF91BF91AF919F918F91B5
:100620007F916F915F914F913F912F910F900FBEEE
:100630000F901F9018951F920F920FB60F921124D2
:100640002F938F939F93EF93FF93E0914C01F09141
:100650004D018081E0915201F091530182FD1BC058
:100660009081809155018F5F8F7320915601821781
:1006700041F0E0915501F0E0E45CFE4F958F8093EE
:100680005501FF91EF919F918F912F910F900FBE88
:100690000F901F9018958081F4CFECE3F1E0138266
:1006A000128288EE93E0A0E0B0E084839583A68375
:1006B000B78384E091E09183808385EC90E0958717
:1006C000848784EC90E09787868780EC90E0918B1C
:1006D000808B81EC90E0938B828B82EC90E0958B09
:1006E000848B86EC90E0978B868B118E128E138E06
:1006F000148EE9EDF1E088E090E09183808384E05E
:1007000090E0938382831582148281E0868329E0BE
:1007100030E03087278325E030E032872187148658
:10072000138685870895789484B5826084BD84B5E6
:10073000816084BD85B5826085BD85B5816085BDDC
:1007400080916E00816080936E0010928100809194
:10075000810082608093810080918100816080931C
:100760008100809180008160809380008091B10041
:1007700084608093B1008091B00081608093B0006C
:1007800080917A00846080937A0080917A00826000
:1007900080937A0080917A00816080937A008091C2
:1007A0007A00806880937A001092C100E0914C0139
:1007B000F0914D0182E08083E0914801F091490180
:1007C0001082E0914A01F0914B018FEC80831092EE
:1007D0005401E0915001F091510186E08083E09155
:1007E0004E01F0914F01808180618083E0914E0144
:1007F000F0914F01808188608083E0914E01F091FB
:100800004F01808180688083E0914E01F0914F011B
:1008100080818F7D8083C091DB0162E08091D9016E
:100820000E94E30061E08C2F0E94E300C091E2018E
:1008300062E08091E0010E94E30061E08C2F0E9461
:10084000E30061E08DE00E94E30061E08CE00E9443
:10085000E3008824839420E0A22E20E0B22E2FB75C
:10086000F8948091380190913901A0913A01B091AA
:100870003B012FBF80932F0190933001A093310152
:10088000B093320110922E0110922D0109ED11E06A
:10089000F801C080D180C481D58196013327F90148
:1008A000E255FF4F8491F901E656FF4F9490F9010C
:1008B000EA57FF4F7490772009F46DC081110E94B0
:1008C0008C00E72DF0E0EE0FFF1FE859FF4FA591D8
:1008D000B491EC919E2231E020E009F430E0832FC6
:1008E000922F9C01F1E02F27217020932A01892B60
:1008F00009F054C0209709F051C080912F019091C8
:100900003001A0913101B091320180932601909382
:100910002701A0932801B093290180912F01909184
:100920003001A0913101B0913201409122015091EA
:10093000230160912401709125012C013D01441A8D
:10094000550A660A770AB301A2014D3351056105C4
:10095000710540F08093220190932301A09324011C
:10096000B093250140912601509127016091280103
:1009700070912901841B950BA60BB70B803D974006
:10098000A105B10508F4A1C0D0E0C0E0222359F0D0
:10099000C2E0D0E008C090E080E0A3CFC130D10534
:1009A00009F4BBCF7E0180912D0190912E01E816B4
:1009B000F9060CF0C70190932E0180932D01C6011A
:1009C0000E942E0282E191E00E942102CE010E944B
:1009D0002E0286E191E00E9421028AE191E00E94CC
:1009E0002102095F1F4F41E0073E140709F050CF75
:1009F00080912D0190912E018130910509F470C0F4
:100A000008F469C0029709F470C00091D9011091EF
:100A1000DA01C091DF016C2F8091DB010E94B500EB
:100A2000C8010E942E0282E191E00E9421028C2FD7
:100A300090E00E942E0286E191E00E9421028AE16C
:100A400091E00E9421020091E0011091E101C0912A
:100A5000E6016C2F8091E2010E94B500C8010E945E
:100A60002E0282E191E00E9421028C2F90E00E94F0
:100A70002E0286E191E00E9421028AE191E00E942B
:100A8000210260912C018DE00E94B50060912B0144
:100A90008CE00E94B50080912D0190912E010E9462
:100AA0002E0286E191E00E9421028EE191E00E94F7
:100AB0002102A114B10409F4D2CE0E947E01882340
:100AC00009F4CDCE0E940000CACEC1E0D0E0EE24F1
:100AD000E394F12C68CF80922C0180922B0195CF6A
:100AE00010922C0110922B0190CF80922C01FACF02
:100AF000A1E21A2EAA1BBB1BFD010DC0AA1FBB1F22
:100B0000EE1FFF1FA217B307E407F50720F0A21B93
:100B1000B30BE40BF50B661F771F881F991F1A9400
:100B200069F760957095809590959B01AC01BD012A
:100B3000CF010895EE0FFF1F0590F491E02D099469
:040B4000F894FFCF57
:100B440000000000B40114014101010272015001CE
:100B54006401203E2000202D2000207C20000D0A6E
:020B640000008F
:00000001FF
