:100000000C9462000C948A000C948A000C948A0070
:100010000C948A000C948A000C948A000C948A0038
:100020000C948A000C948A000C948A000C948A0028
:100030000C948A000C948A000C948A000C948A0018
:100040000C9450020C948A000C94C0020C949A02F6
:100050000C948A000C948A000C948A000C948A00F8
:100060000C948A000C948A000000000023002600F3
:10007000290000000000240027002A0000000000E2
:10008000250028002B0004040404040404040202D4
:100090000202020203030303030301020408102007
:1000A0004080010204081020010204081020000012
:1000B0000008000201000003040700000000000027
:1000C0000000F20211241FBECFEFD8E0DEBFCDBF8B
:1000D00011E0A0E0B1E0EEE7F9E002C005900D927A
:1000E000A231B107D9F721E0A2E1B1E001C01D9230
:1000F000A63DB207E1F710E0C2E6D0E004C02197C8
:10010000FE010E94B704C136D107C9F70E94380327
:100110000C94BD040C940000833081F028F48130ED
:1001200099F08230A9F008958730A9F08830C9F09D
:100130008430B1F4809180008F7D03C08091800075
:100140008F7780938000089584B58F7784BD08955C
:1001500084B58F7DFBCF8091B0008F778093B00006
:1001600008958091B0008F7DF9CF1F93CF93DF93D7
:10017000282F30E0F901E255FF4F8491F901E6564E
:10018000FF4FD491F901EA57FF4FC491CC23A9F056
:10019000162F81110E948C00EC2FF0E0EE0FFF1F54
:1001A000E458FF4FA591B4918FB7F894EC911111D9
:1001B00008C0D095DE23DC938FBFDF91CF911F91D4
:1001C0000895DE2BF8CFCF93DF9390E0FC01E65645
:1001D000FF4F24918A579F4FFC0184918823D1F0CF
:1001E00090E0880F991FFC01EE58FF4FA591B49144
:1001F000FC01E458FF4FC591D491623071F49FB770
:10020000F8943C91822F809583238C93E8812E2B48
:1002100028839FBFDF91CF9108958FB7F894EC9119
:100220002E2B2C938FBFF6CFAF92BF92CF92DF923F
:10023000EF92FF920F931F93CF93DF936C017B019B
:100240008B01040F151FEB015E01AE18BF08C0172C
:10025000D10759F06991D601ED91FC910190F0819F
:10026000E02DC6010995892B79F7C501DF91CF9162
:100270001F910F91FF90EF90DF90CF90BF90AF90C4
:100280000895FC01538D448D252F30E0842F90E09C
:10029000821B930B541710F0CF9608950197089581
:1002A000FC01918D828D981761F0A28DAE0FBF2F4A
:1002B000B11D5D968C91928D9F5F9F73928F90E0A0
:1002C00008958FEF9FEF0895FC01918D828D98170F
:1002D00031F0828DE80FF11D858D90E008958FEF4C
:1002E0009FEF0895FC01918D228D892F90E0805C15
:1002F0009F4F821B91098F73992708958BE291E09C
:100300000E94720121E0892B09F420E0822F0895D8
:1003100080E090E0892B29F00E947E0181110C94ED
:1003200000000895FC01A48DA80FB92FB11DA35A98
:10033000BF4F2C91848D90E001968F739927848F05
:10034000A689B7892C93A089B1898C918370806428
:100350008C93938D848D981306C00288F389E02DC9
:1003600080818F7D80830895EF92FF920F931F937A
:10037000CF93DF93EC0181E0888F9B8D8C8D981358
:100380001AC0E889F989808185FF15C09FB7F89464
:10039000EE89FF896083E889F989808183708064B0
:1003A00080839FBF81E090E0DF91CF911F910F91FB
:1003B000FF90EF900895F62E0B8D10E00F5F1F4F0A
:1003C0000F731127E02E8C8D8E110CC00FB607FC19
:1003D000FACFE889F989808185FFF5CFCE010E94A7
:1003E0009201F1CFEB8DEC0FFD2FF11DE35AFF4F82
:1003F000F0829FB7F8940B8FEA89FB898081806235
:10040000CFCFCF93DF93EC01888D8823B9F0AA89F1
:10041000BB89E889F9898C9185FD03C0808186FDBF
:100420000DC00FB607FCF7CF8C9185FFF2CF80810E
:1004300085FFEDCFCE010E949201E9CFDF91CF91F0
:1004400008950F931F93FC0180911E0190911F014D
:10045000A0912001B091210140911201509113010E
:1004600060911401709115018C019D01041B150B05
:10047000260B370BB901A8014D33510561057105F4
:1004800060F08093120190931301A0931401B09334
:100490001501908181E0982790831F910F91089515
:1004A0001F920F920FB60F9211242F933F938F93A9
:1004B0009F93AF93BF938091270190912801A091C2
:1004C0002901B0912A013091260123E0230F2D3715
:1004D00058F50196A11DB11D209326018093270197
:1004E00090932801A0932901B0932A0180912201C1
:1004F00090912301A0912401B09125010196A11DA5
:10050000B11D8093220190932301A0932401B09305
:100510002501BF91AF919F918F913F912F910F90A6
:100520000FBE0F901F90189526E8230F0296A11D6D
:10053000B11DD2CF1F920F920FB60F9211242F939D
:100540003F934F935F936F937F938F939F93AF935B
:10055000BF93EF93FF938BE291E00E949201FF9192
:10056000EF91BF91AF919F918F917F916F915F912B
:100570004F913F912F910F900FBE0F901F901895A4
:100580001F920F920FB60F9211242F938F939F9368
:10059000EF93FF93E0913B01F0913C018081E0916A
:1005A0004101F091420182FD1BC090818091440184
:1005B0008F5F8F7320914501821741F0E0914401D4
:1005C000F0E0E55DFE4F958F80934401FF91EF9140
:1005D0009F918F912F910F900FBE0F901F901895A4
:1005E0008081F4CFEBE2F1E01382128288EE93E097
:1005F000A0E0B0E084839583A683B78384E091E094
:100600009183808385EC90E09587848784EC90E0EB
:100610009787868780EC90E0918B808B81EC90E0CF
:10062000938B828B82EC90E0958B848B86EC90E0B0
:10063000978B868B118E128E138E148EE8ECF1E060
:1006400088E090E09183808384E090E093838283CC
:100650001582148281E0868329E030E03087278389
:1006600025E030E032872187148613868587089538
:10067000CF93DF9300D000D000D01F92CDB7DEB76C
:10068000789484B5826084BD84B5816084BD85B56D
:10069000826085BD85B5816085BD80916E00816079
:1006A00080936E001092810080918100826080931F
:1006B0008100809181008160809381008091800021
:1006C0008160809380008091B10084608093B1004C
:1006D0008091B00081608093B00080917A00846046
:1006E00080937A0080917A00826080937A00809172
:1006F0007A00816080937A0080917A00806880938C
:100700007A001092C100E0913B01F0913C0182E03F
:100710008083E0913701F09138011082E091390136
:10072000F0913A018FEC808310924301E0913F01F8
:10073000F091400186E08083E0913D01F0913E011F
:10074000808180618083E0913D01F0913E01808154
:1007500088608083E0913D01F0913E018081806856
:100760008083E0913D01F0913E0180818F7D808307
:100770001091CA0162E08091C8010E94E30061E02B
:10078000812F0E94E3001091D10162E08091CF019E
:100790000E94E30061E0812F0E94E30061E08DE0B0
:1007A0000E94E30061E08CE00E94E30090E0E92E0B
:1007B00090E0F92E8824839422E0C22ED12CAA2422
:1007C000A394B12C2FB7F894809127019091280120
:1007D000A0912901B0912A012FBF80931E0190930F
:1007E0001F01A0932001B093210110921D011092CE
:1007F0001C0108EC11E087E0F801DE011196019080
:100800000D928A95E1F729813A813327F901E25562
:10081000FF4F8491F901E656FF4F9490F901EA5792
:10082000FF4F7490772009F468C081110E948C00FA
:10083000E72DF0E0EE0FFF1FE859FF4FA591B491AF
:10084000EC919E2209F459C08D819E8121E030E017
:10085000892B09F054C080911E0190911F01A09135
:100860002001B09121018093160190931701A0936C
:100870001801B0931901BE82AD822D813E81809115
:100880001C0190911D01281739070CF0C9019093A4
:100890001D0180931C01095F1F4F21E0063D1207D7
:1008A00009F0A9CF8130910509F459C008F452C06C
:1008B000029709F459C06091CE018091CA010E944B
:1008C000B5006091D5018091D1010E94B500609181
:1008D0001B018DE00E94B50060911A018CE00E941E
:1008E000B500E114F10409F46DCF0E947E01882364
:1008F00009F468CF0E94000065CF30E020E08091CD
:100900001E0190911F01A0912001B0912101409101
:100910001601509117016091180170911901841B03
:10092000950BA60BB70B80349640A105B10528F4B2
:10093000CE0107960E942102A0CF232B39F0CE01D1
:1009400007960E942102DE82CD8297CF8F821E827F
:100950001D8293CF80921B0180921A01ACCF10921E
:100960001B0110921A01A7CF80921B01FACFEE0F44
:0E097000FF1F0590F491E02D0994F894FFCF3D
:10097E0000000000B4011401410101027201500196
:02098E00640102
:00000001FF
